:020000040800F2
:10000000B012002045010008A10F0008650F00088C
:100010009D0F0008B10900082D2E00080000000007
:10002000000000000000000000000000111A00089D
:10003000B50900080000000081110008FD1A000841
:100040005F0100085F0100085F0100083517000824
:100050005F0100085F010008B90900085F0100089E
:100060005F0100085F0100085F0100085F010008F0
:100070005F0100085F0100085F0100085F010008E0
:100080005F0100085F0100085F0100085F010008D0
:100090005F0100085F0100085F0100085F010008C0
:1000A0005F0100085F0100085F0100085F010008B0
:1000B000E11B00085F0100085F0100085F01000804
:1000C0005F0100085F0100085F0100085F01000890
:1000D0005F01000841260008952600085F0100081E
:1000E0005F0100085F0100085F0100085F01000870
:1000F0005F0100085F0100085F0100085F01000860
:100100005F0100085F0100085F0100085F0100084F
:100110005F0100085F0100085F0100085F0100083F
:100120005F0100085F0100085F0100085F0100082F
:10013000DFF80CD000F018F90048004779310008CA
:10014000B01200200648804706480047FEE7FEE759
:10015000FEE7FEE7FEE7FEE7FEE7FEE7FEE7FEE777
:10016000811B0008310100080FB400B589B00BA84D
:1001700000906A4603480A9900F0ECF809B05DF86F
:1001800014FB00003C0000202DE9FF5F1D464FF0EE
:10019000FF3BD5E9014691465F464FF00008A9694B
:1001A0007F1C01988847296A824688470028F6D133
:1001B000BAF1FF3F0CD024F4C064002E19DD6006B4
:1001C00014D5BAF12B0F09D0BAF12D0F0ED103E0DF
:1001D000584604B0BDE8F09F44F48064A9697F1CD0
:1001E00001988847761E8246002E02DDBAF1300F54
:1001F00003D0B9F1000F26D032E0A969761E44F48D
:1002000000747F1C019888478246002E05DDBAF1F4
:10021000780F06D0BAF1580F03D0B9F1000F10D003
:100220001EE0B9F1000F02D0B9F1100F18D1A96981
:10023000761E24F400747F1C0198884782461020A3
:1002400002E0082000E00A20814609E008FB0908D6
:10025000A969761E44F400747F1C01988847824681
:10026000002E05DD4946504600F065F80028EDDA1D
:10027000E96901988847A00502D46FF00100A8E75A
:10028000E00725D1600613D5600502D5C8F100004E
:1002900000E0404629680A1D2A600968220501D548
:1002A000087015E0220701D5088011E008600FE012
:1002B0002868011D29600068210502D580F80080AA
:1002C00006E0210702D5A0F8008001E0C0F8008018
:1002D00038467EE72DE9F05F0546002092469B46B2
:1002E00088460646814640241BE02846414647464C
:1002F000224600F070F853465A46C01A914110D376
:1003000011461846224600F057F82D1A67EB0108EF
:100310004F4622460120002100F04EF817EB00095D
:100320004E41201EA4F10104DFDC484631462A4636
:100330004346BDE8F09F3A2800D2303820F0200232
:10034000412A01D3A2F13700884201D34FF0FF3098
:1003500070470000024B9361024BD36100F052B82A
:1003600035310008A9030008064C074D06E0E06897
:1003700040F0010394E8070098471034AC42F6D3EC
:10038000FFF7DAFEA4320008C4320008094910B5AC
:1003900008784C1C18B1401E0870205C10BD00216C
:1003A0000720ABBE207010BD02490878421C0A70BD
:1003B0007047000044000020202A04DB203A00FAA5
:1003C00002F1002070479140C2F1200320FA03F3AC
:1003D000194390407047202A04DB203A21FA02F0AA
:1003E0000021704721FA02F3D040C2F1200291406F
:1003F00008431946704700000268114413780160F1
:1004000018467047D16004495161044911620021C6
:100410001161114600F00AB8F90300082104000830
:10042000C0B24FF4F05100F097B900002DE9F34F3E
:100430008BB04FF0000801F10C000C464FF0010B9F
:1004400046460DF1080A0190626901210198904722
:10045000051E2DD0252D2CD0216A8847C0B1626998
:10046000012101989047216A88470028F7D1411E51
:1004700062690198904700E0761CA1690B98884753
:10048000216A88470028F7D1E1690B988847DBE7A4
:10049000A1690B9888470746A84201D1761CD3E78B
:1004A000E1690B9888477F1C02D1B8F1000F6FD02B
:1004B00046E1002762693D463946019890472A285F
:1004C00004D162690121019890470125DFF88492E7
:1004D0006269012101989047A0F130010A290AD2EE
:1004E0004F45E5DC07EB870100EB4107303FDFD4E8
:1004F00045F01005ECE7E90601D46FF000476C28E1
:100500000AD04C2814D0682815D06A280DD0742839
:100510001CD07A281AD01DE0626901210198904709
:100520006C2802D045F0040514E045F002050DE00A
:1005300045F020050AE0626901210198904768288A
:1005400002D045F0080505E045F400656269012127
:1005500001989047C4E9015765283DD019DC582817
:100560007AD00CDC452837D004DC252826D0412859
:1005700031D131E046282FD047282CD12CE05B2800
:1005800077D0612828D063287CD0642823D15AE012
:10059000D0E06F2848D008DC66281DD067281BD023
:1005A000692821D06E2816D127E0702845D07328FD
:1005B00068D0752847D078280DD14DE0A1690B98F7
:1005C0008847054625283FF469AFE1690B988847BD
:1005D0006D1C3FF46AAFB3E023466A466FF001003A
:1005E0000B99AFF300809EE045F040006060A807E3
:1005F00023464FF0000236D43EE0E8077FF447AFD1
:100600002068011D21600068290501D506701BE7DF
:10061000290701D5068017E7A90703D5F117C0E917
:10062000006111E706600FE745F040006060A80731
:1006300023464FF0080216D41EE040F60E0125EACC
:100640000100606016E045F040006060A8072346A6
:100650004FF00A0207D40FE045F040006060A807A1
:1006600008D5234610226FF001000B99AFF30080EC
:1006700059E007E0234610226FF001000B99FFF7C5
:1006800083FD50E04FF000094F464B46632802D0EF
:100690005B2806D040E0E80601D40120A0600127D5
:1006A0003AE062690121019890475E2805D14FF038
:1006B00001096269494601989047216939B90021C9
:1006C0000A46534643F82120491C0829FADBB0B3F7
:1006D000216969B9C11700EBD16253110AEB83019B
:1006E00022F01F02821A01200B68904003430B6026
:1006F00062690121019890475D28E8D1B9F1000FA6
:1007000009D00020514651F82020D24341F8202042
:10071000401C0828F7DB02AB224600976FF001006F
:100720000B99AFF3008000280CDA401C08D1BBF114
:10073000000F05D04FF0FF300DB0BDE8F08FFFE7A0
:100740004046F9E7E90701D108F1010806444FF0F6
:10075000000B79E6CCCCCC0C7F2801D9002208E034
:10076000064A02EB5002C007127800D1120902F0CB
:100770000F0201209040084070470000D831000867
:1007800010B5012000F08EFD002000F08BFD10BDA3
:1007900038B5044600200090042C51D0082C4FD0CE
:1007A0000C2C4DD0102C4BD0142C49D0182C47D0E9
:1007B0001C2C45D0202C43D0242C41D0282C3FD0B9
:1007C000402C3DD0442C3BD0482C39D04C2C37D039
:1007D000502C35D0542C33D0582C31D05C2C2FD009
:1007E000602C2DD0642C2BD0682C29D06C2C27D0D9
:1007F000702C25D0742C23D0782C21D07C2C1FD0A9
:10080000802C1DD0842C1BD0882C19D08C2C17D078
:10081000902C15D0942C13D0982C11D09C2C0FD048
:10082000A02C0DD0A42C0BD0A82C09D0AC2C07D018
:10083000B02C05D0B42C03D0B82C01D0BC2C00D1E6
:1008400003E0F62105A002F073FC14480090009824
:10085000204400900098008838BD00002E2E5C2EA9
:100860002E5C4C69627261726965735C53544D33DE
:1008700032463130785F5374645065726970685FD6
:100880004472697665725C7372635C73746D333243
:10089000663130785F626B702E630000006C004040
:1008A00038B504460D4600200090042C51D0082C89
:1008B0004FD00C2C4DD0102C4BD0142C49D0182CD0
:1008C00047D01C2C45D0202C43D0242C41D0282CA0
:1008D0003FD0402C3DD0442C3BD0482C39D04C2C20
:1008E00037D0502C35D0542C33D0582C31D05C2CF0
:1008F0002FD0602C2DD0642C2BD0682C29D06C2CC0
:1009000027D0702C25D0742C23D0782C21D07C2C8F
:100910001FD0802C1DD0842C1BD0882C19D08C2C5F
:1009200017D0902C15D0942C13D0982C11D09C2C2F
:100930000FD0A02C0DD0A42C0BD0A82C09D0AC2CFF
:1009400007D0B02C05D0B42C03D0B82C01D0BC2CCF
:1009500000D103E0E32105A002F0EAFB1348009078
:100960000098204400900098056038BD2E2E5C2E23
:100970002E5C4C69627261726965735C53544D33CD
:1009800032463130785F5374645065726970685FC5
:100990004472697665725C7372635C73746D333232
:1009A000663130785F626B702E630000006C00402F
:1009B00000BFFEE77047000010B5012000F042F8CC
:1009C00058B10121054800F0F1F918B1012104489E
:1009D00000F092F9012000F005F810BD0008014078
:1009E000000C014010B50446200D000508B904B103
:1009F00003E0FC2102A002F09BFB1148046010BD43
:100A00002E2E5C2E2E5C4C69627261726965735C7D
:100A100053544D3332463130785F537464506572AD
:100A20006970685F4472697665725C7372635C7347
:100A3000746D3332663130785F657874692E630087
:100A40001404014070B5044600250026012C31D065
:100A5000022C2FD0042C2DD0082C2BD0102C29D0D8
:100A6000202C27D0402C25D0802C23D0B4F5807F9B
:100A700020D0B4F5007F1DD0B4F5806F1AD0B4F546
:100A8000006F17D0B4F5805F14D0B4F5005F11D0BB
:100A9000B4F5804F0ED0B4F5004F0BD0B4F5803FC5
:100AA00008D0B4F5003F05D0B4F5802F02D0B4F5DE
:100AB000002F00D103E0E52108A002F039FB174820
:100AC000006800EA0406154814300068204010B1A0
:100AD0000EB1012500E00025284670BD2E2E5C2EAB
:100AE0002E5C4C69627261726965735C53544D335C
:100AF00032463130785F5374645065726970685F54
:100B00004472697665725C7372635C73746D3332C0
:100B1000663130785F657874692E630000040140A7
:100B20002DE9F05F05460C464FF00009CA46002645
:100B30000027B046B3465948854211D058488542EF
:100B40000ED0584885420BD05748854208D05748A8
:100B5000854205D05648854202D05648854200D18C
:100B600003E0B22154A002F0E3FAE078A0B1E0780B
:100B7000042811D0E07828280ED0E07848280BD03F
:100B8000E078142808D0E078102805D0E0781C28F8
:100B900002D0E078182800D103E0B32146A002F08B
:100BA000C7FA002010B9208800B103E0B42142A0A8
:100BB00002F0BEFAE07800F00F09E07800F01000D3
:100BC00080B1A078012805D0A078022802D0A078B2
:100BD000032800D103E0BB2137A002F0A9FAA078D6
:100BE00040EA0909207838B3D5F8008000261FE0D4
:100BF000012000FA06F7208800EA070ABA4516D154
:100C0000B7000F2000FA07FB28EA0B0809FA07F0E3
:100C100040EA0808E078282803D10120B040686144
:100C200005E0E078482802D10120B0402861761C18
:100C3000082EDDD3C5F800802088FF282BDDD5F8ED
:100C40000480002623E006F10800012101FA00F7E4
:100C5000208800EA070ABA4518D1B7000F2000FA29
:100C600007FB28EA0B0809FA07F040EA0808E078D1
:100C7000282803D106F1080081406961E0784828FE
:100C800004D106F10800012181402961761C082E5B
:100C9000D9D3C5F80480BDE8F09F000000080140EA
:100CA000000C0140001001400014014000180140F8
:100CB000001C0140002001402E2E5C2E2E5C4C6951
:100CC000627261726965735C53544D3332463130E0
:100CD000785F5374645065726970685F44726976B6
:100CE00065725C7372635C73746D33326631307835
:100CF0005F6770696F2E630070B504460D46144837
:100D0000844211D0134884420ED0134884420BD041
:100D10001248844208D01248844205D011488442C7
:100D200002D01148844200D104E040F2B3110FA078
:100D300002F0FEF9002008B905B104E04FF4DA71C1
:100D40000AA002F0F5F9E0686840E06070BD0000BC
:100D500000080140000C0140001001400014014057
:100D600000180140001C0140002001402E2E5C2E86
:100D70002E5C4C69627261726965735C53544D33C9
:100D800032463130785F5374645065726970685FC1
:100D90004472697665725C7372635C73746D33322E
:100DA000663130785F6770696F2E630070B50546F5
:100DB0000C4600262848854211D0284885420ED08E
:100DC000274885420BD02748854208D026488542CF
:100DD00005D02648854202D02548854200D104E04E
:100DE0004FF48F7123A002F0A3F9012C25D0022C1F
:100DF00023D0042C21D0082C1FD0102C1DD0202C47
:100E00001BD0402C19D0802C17D0B4F5807F14D083
:100E1000B4F5007F11D0B4F5806F0ED0B4F5006F3B
:100E20000BD0B4F5805F08D0B4F5005F05D0B4F501
:100E3000804F02D0B4F5004F00D104E040F21F1102
:100E40000CA002F075F9A868204008B1012600E066
:100E50000026304670BD000000080140000C014033
:100E6000001001400014014000180140001C014026
:100E7000002001402E2E5C2E2E5C4C696272617245
:100E80006965735C53544D3332463130785F537427
:100E9000645065726970685F4472697665725C73EC
:100EA00072635C73746D3332663130785F6770697A
:100EB0006F2E630070B504460D461348844211D06E
:100EC000124884420ED0124884420BD0114884420A
:100ED00008D01148844205D01048844202D01048FE
:100EE000844200D104E040F269110EA002F020F922
:100EF000002008B905B104E04FF4B57109A002F073
:100F000017F9256170BD000000080140000C014088
:100F1000001001400014014000180140001C014075
:100F2000002001402E2E5C2E2E5C4C696272617294
:100F30006965735C53544D3332463130785F537476
:100F4000645065726970685F4472697665725C733B
:100F500072635C73746D3332663130785F677069C9
:100F60006F2E630000BFFEE708B50121082000F0E6
:100F700051F90120ADF8000010208DF80300012088
:100F80008DF8020069460448FFF7CAFD01210248B6
:100F9000FFF790FF08BD0000000C014000BFFEE716
:100FA000704708B503208DF8000001208DF801007E
:100FB00000208DF8020001208DF80300684600F043
:100FC00001F808BD2DE9F0410446002500270F2651
:100FD000E07810B1E078012800D103E0752121A06C
:100FE00002F0A6F86078102800DA03E076211DA050
:100FF00002F09EF8A078102800DA03E0772119A00B
:1010000002F096F8E07800B32448006800F4E0604D
:10101000C0F5E060050AC5F10407EE40607800FA0B
:1010200007F5A078304005432D011D4822788554EE
:10103000207800F01F0101208840217849118900A3
:1010400001F1E021C1F8000109E0207800F01F0162
:101050000120884013492278521141F82200BDE84E
:10106000F08100002E2E5C2E2E5C4C696272617243
:101070006965735C53544D3332463130785F537435
:10108000645065726970685F4472697665725C73FA
:1010900072635C6D6973632E630000000CED00E009
:1010A00000E400E080E100E010B50446B4F5E06F34
:1010B0000BD0B4F5C06F08D0B4F5A06F05D0B4F56F
:1010C000806F02D0B4F5407F00D103E0632104A01B
:1010D00002F02EF8104820431049086010BD0000AF
:1010E0002E2E5C2E2E5C4C69627261726965735C97
:1010F00053544D3332463130785F537464506572C7
:101100006970685F4472697665725C7372635C6D66
:101110006973632E630000000000FA050CED00E027
:1011200010B504460CB1012C00D103E07F2103A0CF
:1011300001F0FEFF1148046210BD00002E2E5C2E4F
:101140002E5C4C69627261726965735C53544D33F5
:1011500032463130785F5374645065726970685FED
:101160004472697665725C7372635C73746D33325A
:10117000663130785F7077722E63000000000E4297
:101180007047000070B504460D461048204008B96D
:1011900004B104E040F269410DA001F0C9FF0DB1B6
:1011A000012D00D104E040F26A4109A001F0C0FF26
:1011B0002DB11748C06920431549C86104E014489F
:1011C000C069A0431249C86170BD000000360181AA
:1011D0002E2E5C2E2E5C4C69627261726965735CA6
:1011E00053544D3332463130785F537464506572D6
:1011F0006970685F4472697665725C7372635C7370
:10120000746D3332663130785F7263632E63000031
:101210000010024070B504460D461048204008B941
:1012200004B104E040F24A410DA001F081FF0DB18C
:10123000012D00D104E040F24B4109A001F078FFFC
:101240002DB11748806920431549886104E014488E
:101250008069A0431249886170BD00000200C0FF90
:101260002E2E5C2E2E5C4C69627261726965735C15
:1012700053544D3332463130785F53746450657245
:101280006970685F4472697665725C7372635C73DF
:10129000746D3332663130785F7263632E630000A1
:1012A0000010024010B504460CB1012C00D104E03E
:1012B0004FF49B6102A001F03BFF1148046010BD98
:1012C0002E2E5C2E2E5C4C69627261726965735CB5
:1012D00053544D3332463130785F537464506572E5
:1012E0006970685F4472697665725C7372635C737F
:1012F000746D3332663130785F7263632E63000041
:101300004004424230B500210022002400232D4D2C
:101310006D6805F00C0121B1042905D0082923D1FD
:1013200005E0294D056022E0274D05601FE0254DB1
:101330006D6805F47012234D6D6805F48034022544
:1013400005EB92421CB9214D554305600BE01D4D44
:101350006D6805F400351DB11C4D5543056002E074
:10136000194D5543056002E0174D056000BF00BFF1
:10137000144D6D6805F0F0010909154D6B5C0568A9
:10138000DD4045600F4D6D6805F4E061090A104DC0
:101390006B5C4568DD4085600A4D6D6805F4605101
:1013A000C90A0B4D6B5C4568DD40C560054D6D6835
:1013B00005F44041890B074D6B5CC568B5FBF3F53F
:1013C000056130BD0010024000127A0000093D00A6
:1013D00014000020240000202DE9F04104460025DF
:1013E00000260027212C13D0312C11D0392C0FD0FE
:1013F000412C0DD0612C0BD07A2C09D07B2C07D03E
:101400007C2C05D07D2C03D07E2C01D07F2C00D1EC
:1014100004E040F234510EA001F08AFE6511012D66
:1014200002D11B48066806E0022D02D11848066A60
:1014300001E01748466A04F01F050120A84030402B
:1014400008B1012700E000273846BDE8F081000020
:101450002E2E5C2E2E5C4C69627261726965735C23
:1014600053544D3332463130785F53746450657253
:101470006970685F4472697665725C7372635C73ED
:10148000746D3332663130785F7263632E630000AF
:101490000010024010B504460CB1012C00D104E04C
:1014A00040F2613102A001F043FE1148046010BD1A
:1014B0002E2E5C2E2E5C4C69627261726965735CC3
:1014C00053544D3332463130785F537464506572F3
:1014D0006970685F4472697665725C7372635C738D
:1014E000746D3332663130785F7263632E6300004F
:1014F0008004424210B504460CB1012C00D104E036
:101500004FF4607102A001F013FE1148046010BD99
:101510002E2E5C2E2E5C4C69627261726965735C62
:1015200053544D3332463130785F53746450657292
:101530006970685F4472697665725C7372635C732C
:10154000746D3332663130785F7263632E630000EE
:101550003C04424210B50446B4F5807F05D0B4F592
:10156000007F02D0B4F5407F00D104E040F2723138
:1015700004A001F0DDFD1348006A20431149086210
:1015800010BD00002E2E5C2E2E5C4C6962726172C2
:101590006965735C53544D3332463130785F537410
:1015A000645065726970685F4472697665725C73D5
:1015B00072635C73746D3332663130785F7263636B
:1015C0002E6300000010024010B504464FF6F8707C
:1015D000204008B904B104E040F2411104A001F038
:1015E000A7FD13480088A0431149088010BD0000E2
:1015F0002E2E5C2E2E5C4C69627261726965735C82
:1016000053544D3332463130785F537464506572B1
:101610006970685F4472697665725C7372635C734B
:10162000746D3332663130785F7274632E630000FC
:101630000428004010B501214FF0C050FFF7A2FD73
:101640000120FFF76DFDFFF79BF80120FFF722FF58
:1016500000BF6120FFF7C0FE0028FAD04FF40070F1
:10166000FFF778FF0120FFF745FF00F0BFF900F01A
:10167000B3F90121084600F06DF800F0ADF947F626
:10168000FF7000F04FF900F0A7F910BD0348008883
:1016900040F0100001490880704700000428004015
:1016A000034800884FF6EF710840014908807047F1
:1016B0000428004070B504460025042C03D0022CF9
:1016C00001D0012C00D104E040F2271108A001F064
:1016D0002FFD174800882040C5B21548001F00881C
:1016E000204010B10DB1012500E00025284670BD55
:1016F0002E2E5C2E2E5C4C69627261726965735C81
:1017000053544D3332463130785F537464506572B0
:101710006970685F4472697665725C7372635C734A
:10172000746D3332663130785F7274632E630000FB
:101730000428004010B50120FFF7BCFF38B101209C
:10174000FFF742FF01200249086000F045F910BD93
:101750003000002070B504460D464FF6F87020406A
:1017600008B904B103E05D210BA001F0E1FC0DB16B
:10177000012D00D103E05E2107A001F0D9FC2DB1BD
:101780001548008820431449088004E01248008866
:10179000A0431149088070BD2E2E5C2E2E5C4C6932
:1017A000627261726965735C53544D3332463130F5
:1017B000785F5374645065726970685F44726976CB
:1017C00065725C7372635C73746D3332663130784A
:1017D0005F7274632E6300000028004010B5044659
:1017E000FFF7DFFB0420FEF7D3FF4AF2A551884242
:1017F00010D01EA001F01CFBFFF71CFF23A001F07E
:1018000017FB204600F0C6F84AF2A5510420FFF766
:1018100047F82AE001214FF0C050FFF7B3FC012048
:10182000FFF77EFC0120FFF735FE00BF6120FFF7C8
:10183000D3FD0028FAD07B20FFF7CEFD18B119A008
:1018400001F0F6FA06E07A20FFF7C6FD10B11DA000
:1018500001F0EEFA23A001F0EBFA00F0C7F8012145
:101860000846FFF777FF00F0B7F810BD0D0A0A2011
:10187000525443206E6F742079657420636F6E66D6
:101880006967757265642E2E2E2E00000D0A205297
:10189000544320636F6E666967757265642E2E2EE1
:1018A0002E0000000D0A0A20506F776572204F6EDF
:1018B000205265736574206F636375727265642E60
:1018C0002E2E2E000D0A0A2045787465726E616C0A
:1018D000205265736574206F636375727265642E40
:1018E0002E2E2E000D0A204E6F206E65656420742A
:1018F0006F20636F6E666967757265205254432E60
:101900002E2E2E0000B50246FFF7C0FE100C034934
:101910000880091D0A80FFF7C3FE00BD182800409B
:101920007047000010B50446B4F5801F00D203E0F4
:10193000A32107A001F0FCFBFFF7A8FEC4F30340BE
:1019400013490880091D0C80FFF7AAFE10BD000096
:101950002E2E5C2E2E5C4C69627261726965735C1E
:1019600053544D3332463130785F5374645065724E
:101970006970685F4472697665725C7372635C73E8
:10198000746D3332663130785F7274632E63000099
:101990000828004070B50446002240F225510D4849
:1019A00001F008F800F018F82046FFF7B9FF00F042
:1019B0002DFD0546FFF7A6FF00F00EF840F2255179
:1019C000044800F091FE012240F22551014800F048
:1019D000F1FF70BD0038014000BF0348008800F0EF
:1019E00020000028F9D070470428004007480088EC
:1019F0004FF6F77108400549088000BF034800888A
:101A000000F008000028F9D07047000004280040CA
:101A1000704710B500F002F810BD00000CB50020B2
:101A2000019000903348006840F4803031490860EC
:101A300000BF3048006800F4003000900198401C5E
:101A40000190009818B90198B0F5A06FF1D129481C
:101A5000006800F4003010B10120009001E0002087
:101A600000900098012843D12348006840F01000FE
:101A7000214908600846006820F003000860084615
:101A8000006840F0020008601A4840681949486040
:101A90000846406848600846406840F480604860F6
:101AA0000846406820F47C1048600846406840F4CE
:101AB000E81048600846006840F08070086000BF89
:101AC0000C48006800F000700028F9D00948406810
:101AD00020F00300074948600846406840F00200D3
:101AE000486000BF0348406800F00C000828F9D1A6
:101AF0000CBD0000001002400020024010B500F0B4
:101B00003FFD10BD30B51A4800681A4AB0FBF2F12B
:101B1000B1F1807F01D301201DE021F07F40401E04
:101B20004FF0E022506150170F22002807DA130708
:101B30001D0E114B00F00F04241F1D5503E0130769
:101B40001C0E0E4B1C5400BF00204FF0E022906191
:101B500007201061002008B100BFFEE74FF0E02031
:101B6000006920F001004FF0E021086130BD000065
:101B70000000002040420F0018ED00E000E400E00B
:101B800010B51348006840F001001149086008468C
:101B90004068104908400E494860084600680E49F0
:101BA00008400B4908600846006820F4802008605F
:101BB0000846406820F4FE0048604FF41F0088602B
:101BC000FFF727FF4FF000600449086010BD0000D8
:101BD000001002400000FFF8FFFFF6FE08ED00E0F5
:101BE00010B50121880700F0F7F9002846D001213F
:101BF000880700F0D5F822480088401C204908805A
:101C000008460088B0F57A7F0CD10020088008468D
:101C10004088401C4880084640883C282EDD002033
:101C200048802BE016480088322190FBF1F201FB3E
:101C3000120018BB134890F8000168B1114890F8E1
:101C40000001401E0F4981F80001084690F800018C
:101C500010B9012081F801010B4890F8000168B12A
:101C6000094890F80001401E074981F80001084624
:101C700090F8000110B9012081F8010110BD0000A9
:101C80002C000020AC000020AE01002070B50446FE
:101C90000D46234884422FD0B4F1804F2CD02148E8
:101CA000844229D02048844226D02048844223D030
:101CB0001F48844220D01F4884421DD01E488442C1
:101CC0001AD01E48844217D01D48844214D01D48A3
:101CD000844211D01C4884420ED01C4884420BD050
:101CE0001B48844208D01B48844205D01A488442CD
:101CF00002D01A48844200D104E040F62B2118A0FB
:101D000001F016FA05F4614008B905B104E040F6A7
:101D10002C2113A001F00CFAE843208270BD0000D2
:101D2000002C01400004004000080040000C00406E
:101D3000001000400014004000340140004C0140FD
:101D4000005001400054014000180040001C0040B9
:101D50000020004000400140004401400048014094
:101D60002E2E5C2E2E5C4C69627261726965735C0A
:101D700053544D3332463130785F5374645065723A
:101D80006970685F4472697665725C7372635C73D4
:101D9000746D3332663130785F74696D2E63000084
:101DA00070B504460D46234884422FD0B4F1804FCD
:101DB0002CD02148844229D02048844226D0204873
:101DC000844223D01F48844220D01F4884421DD023
:101DD0001E4884421AD01E48844217D01D488442AF
:101DE00014D01D48844211D01C4884420ED01C4897
:101DF00084420BD01B48844208D01B48844205D043
:101E00001A48844202D01A48844200D104E040F6C5
:101E1000772118A001F08CF905F47F4008B905B1CD
:101E200004E040F6782113A001F082F9E843208213
:101E300070BD0000002C014000040040000800407C
:101E4000000C00400010004000140040003401402D
:101E5000004C014000500140005401400018004077
:101E6000001C0040002000400040014000440140B0
:101E7000004801402E2E5C2E2E5C4C69627261720D
:101E80006965735C53544D3332463130785F537417
:101E9000645065726970685F4472697665725C73DC
:101EA00072635C73746D3332663130785F74696D60
:101EB0002E63000070B504460D46274884422FD09B
:101EC000B4F1804F2CD02548844229D02448844244
:101ED00026D02448844223D02348844220D023485B
:101EE00084421DD0224884421AD02248844217D00E
:101EF0002148844214D02148844211D02048844291
:101F00000ED0204884420BD01F48844208D01F487E
:101F1000844205D01E48844202D01E48844200D12B
:101F200004E040F229311CA001F002F90DB1012DAD
:101F300000D104E040F22A3117A001F0F9F825B1F0
:101F4000208840F00100208004E020884FF6FE71D8
:101F50000840208070BD0000002C014000040040BB
:101F600000080040000C0040001000400014004039
:101F700000340140004C0140005001400054014039
:101F800000180040001C00400020004000400140BC
:101F900000440140004801402E2E5C2E2E5C4C690E
:101FA000627261726965735C53544D3332463130ED
:101FB000785F5374645065726970685F44726976C3
:101FC00065725C7372635C73746D33326631307842
:101FD0005F74696D2E6300002DE9F04104460D46E3
:101FE00000260027B0462F4884422FD0B4F1804FFE
:101FF0002CD02D48844229D02C48844226D02C480D
:10200000844223D02B48844220D02B4884421DD0C8
:102010002A4884421AD02A48844217D02948844248
:1020200014D02948844211D0284884420ED0284830
:1020300084420BD02748844208D02748844205D0E8
:102040002648844202D02648844200D104E040F66B
:102050004D2124A001F06CF8012D0DD0022D0BD0E4
:10206000042D09D0082D07D0102D05D0202D03D028
:10207000402D01D0802D00D104E040F64E2119A062
:1020800001F056F8208A00EA0507A08900EA050851
:1020900027B1B8F1000F01D0012600E0002630463C
:1020A000BDE8F081002C0140000400400008004021
:1020B000000C0040001000400014004000340140BB
:1020C000004C014000500140005401400018004005
:1020D000001C00400020004000400140004401403E
:1020E000004801402E2E5C2E2E5C4C69627261729B
:1020F0006965735C53544D3332463130785F5374A5
:10210000645065726970685F4472697665725C7369
:1021100072635C73746D3332663130785F74696DED
:102120002E63000070B504460D4616462A488442C8
:102130002FD0B4F1804F2CD02848844229D0284891
:10214000844226D02748844223D02748844220D086
:10215000264884421DD0264884421AD0254884420D
:1021600017D02548844214D02448844211D02448F2
:1021700084420ED0234884420BD02348844208D0A6
:102180002248844205D02248844202D02148844219
:1021900000D104E040F26B311FA000F0C9FF05F44C
:1021A0007F4008B905B104E04FF45B711AA000F05C
:1021B000BFFF0EB1012E00D104E040F26D3116A038
:1021C00000F0B6FF1EB1A0892843A08102E0A089DB
:1021D000A843A08170BD0000002C01400004004015
:1021E00000080040000C00400010004000140040B7
:1021F00000340140004C01400050014000540140B7
:1022000000180040001C0040002000400040014039
:1022100000440140004801402E2E5C2E2E5C4C698B
:10222000627261726965735C53544D33324631306A
:10223000785F5374645065726970685F4472697640
:1022400065725C7372635C73746D333266313078BF
:102250005F74696D2E63000070B504460D4600265C
:102260004A4884422FD0B4F1804F2CD04848844251
:1022700029D04848844226D04748844223D0474842
:10228000844220D0464884421DD0464884421AD019
:102290004548844217D04548844214D0444884427B
:1022A00011D0444884420ED0434884420BD0434866
:1022B000844208D04248844205D04248844202D039
:1022C0004148844200D103E0E72140A000F030FF04
:1022D000688858B16888102808D06888202805D0F8
:1022E0006888402802D06888602800D103E0E8218F
:1022F00036A000F01DFFE88838B1E888B0F5807F8F
:1023000003D0E888B0F5007F00D103E0E9212FA0D9
:1023100000F00EFF26881D4884420ED021488442DA
:102320000BD0B4F1804F08D01948844205D0194829
:10233000844202D01848844204D14FF68F70064080
:10234000688806431548844207D01548844204D063
:102350004FF6FF400640E88806432680A888A085FF
:1023600028882085094884420BD00E48844208D032
:102370001348844205D01348844202D01248844254
:1023800001D1287A20860120A08270BD002C014056
:102390000004004000080040000C00400010004015
:1023A0000014004000340140004C01400050014046
:1023B0000054014000180040001C00400020004074
:1023C0000040014000440140004801402E2E5C2E98
:1023D0002E5C4C69627261726965735C53544D3353
:1023E00032463130785F5374645065726970685F4B
:1023F0004472697665725C7372635C73746D3332B8
:10240000663130785F74696D2E63000070B5FF2609
:10241000FF24FF251AA000F00BFD25A000F008FD09
:1024200003E0172000F066FC0646FF2EF9D0314687
:1024300025A000F0FDFC26A000F0FAFC03E03B2004
:1024400000F058FC0446FF2CF9D021461EA000F0F5
:10245000EFFC25A000F0ECFC03E03B2000F04AFC80
:102460000546FF2DF9D0294617A000F0E1FC4FF4F6
:1024700061607043C4EB041100EB8100284470BD1F
:102480000D0A3D3D3D3D3D3D3D3D3D3D3D3D3D3DDF
:102490002054696D652053657474696E6773203DBF
:1024A0003D3D3D3D3D3D3D3D3D3D3D3D3D00000013
:1024B0000D0A2020506C65617365205365742048B7
:1024C0006F757273000000003A2020256400000040
:1024D0000D0A2020506C6561736520536574204D92
:1024E000696E7574657300000D0A2020506C65617B
:1024F000736520536574205365636F6E64730000C9
:102500001FB500241C4800681C49B0FBF1F0401EB8
:1025100084B201210846FEF735FE1C208DF80C0020
:1025200003208DF80D0001208DF80E008DF80F00AE
:1025300003A8FEF747FD40F2E730ADF80400ADF820
:1025400000400020ADF80600ADF802008DF808004C
:1025500069464FF08040FFF77FFE01218807FFF7B3
:1025600095FB012211469007FFF7DCFD012188074A
:10257000FFF7A0FC1FBD00000000002040420F003C
:102580000448006820B103480068401E0149086003
:10259000704700002800002000B587B0012104200A
:1025A000FEF738FE01218803FEF734FE4FF4007079
:1025B000ADF8180018208DF81B0003208DF81A00C4
:1025C00006A91D48FEF7ACFA4FF48060ADF818007C
:1025D00004208DF81B0006A91748FEF7A1FA252054
:1025E0008DF8140001208DF815008DF816008DF877
:1025F000170005A8FEF7E6FC4FF4E130019000203B
:10260000ADF80800ADF80A00ADF80C00ADF8100008
:102610000C20ADF80E0001A9084800F053FA012281
:1026200040F22551054800F0C5F90121034800F0AA
:10263000A1F807B000BD00000008014000380140CB
:1026400010B540F22551114800F02AF9E0B10F48C9
:1026500000F028FBC1B20E4890F8FF40601C0C4A05
:1026600082F8FF001046015590F8FF00FF2807DBB5
:102670000020114681F8010181F8FF0081F8000176
:102680000220034981F8000110BD0000003801401C
:10269000AC00002010B540F22551114800F000F9BF
:1026A000E0B10F4800F0FEFAC1B20E4890F8FF40CA
:1026B000601C0C4A82F8FF001046015590F8FF009C
:1026C000FF2807DB0020114681F8010181F8FF0097
:1026D00081F800010220034981F8000110BD0000CB
:1026E00000440040AE01002070B504460D461B4872
:1026F00084420BD01A48844208D01A48844205D03C
:102700001948844202D01948844200D104E040F2C2
:102710009E31174800F00CFD4FF69F40284008B945
:1027200005B104E040F29F31114800F001FD05F4CD
:102730000070B0F5007F0ED10848844205D00848EB
:10274000844202D00748844200D104E040F2A33121
:10275000074800F0EDFCE843208070BD00380140E0
:102760000044004000480040004C00400050004041
:102770001832000870B504460D46154884420BD047
:102780001448844208D01448844205D01348844237
:1027900002D01348844200D104E04FF4B1711148D3
:1027A00000F0C6FC0DB1012D00D104E040F2631130
:1027B0000C4800F0BDFC25B1A08940F40050A08178
:1027C00004E0A0894DF6FF710840A08170BD0000B3
:1027D000003801400044004000480040004C0040E8
:1027E000005000401832000870B505460C4600261F
:1027F000254885420BD02548854208D0244885428B
:1028000005D02448854202D02348854200D104E007
:1028100040F26E31214800F08BFC012C13D0802C4B
:1028200011D0402C0FD0202C0DD0102C0BD0B4F593
:10283000807F08D0B4F5007F05D0082C03D0042C8D
:1028400001D0022C00D104E040F26F31134800F0B7
:102850006FFCB4F5007F0ED10B48854205D00B48C4
:10286000854202D00A48854200D104E040F273312B
:102870000A4800F05DFC2888204008B1012600E0ED
:102880000026304670BD0000003801400044004082
:1028900000480040004C0040005000401832000842
:1028A0002DE9F04705460C4600270026B046B14604
:1028B0003A4885420BD03A48854208D0394885428B
:1028C00005D03948854202D03848854200D104E01D
:1028D00040F2C131364800F02BFC282C20D040F2C9
:1028E000277084421CD040F22660844218D040F207
:1028F0002550844214D040F22440844210D040F647
:10290000460084420CD040F66A10844208D0B4F5E8
:10291000587F05D0B4F5187F02D0B4F5B07F00D150
:1029200004E040F2C231224800F002FC40F66A1096
:1029300084420ED11948854205D01948854202D0FB
:102940001848854200D104E040F2C631184800F032
:10295000EFFBC4F3421804F01F06012000FA06F64C
:10296000B8F1010F02D1A889064007E0B8F1020FC3
:1029700002D1288A064001E0A88A064027120120D9
:1029800000FA07F7288807401EB117B14FF0010978
:1029900001E04FF000094846BDE8F08700380140EB
:1029A0000044004000480040004C004000500040FF
:1029B000183200082DE9F04705460C4617464FF03F
:1029C0000008C246C1460026384885420BD0384828
:1029D000854208D03748854205D03748854202D025
:1029E0003648854200D104E040F28911344800F0B5
:1029F0009FFB282C19D040F22770844215D040F25A
:102A00002660844211D040F2255084420DD040F21D
:102A10002440844209D040F64600844205D040F666
:102A20006A10844201D0602C00D104E04FF4C571DB
:102A3000234800F07DFB0FB1012F00D104E040F2EC
:102A40008B111F4800F074FB40F66A1084420ED1CF
:102A50001648854205D01648854202D01548854261
:102A600000D104E040F28F11154800F061FB2E46C2
:102A7000C4F3421804F01F0A012000FA0AF9B8F161
:102A8000010F01D10C3605E0B8F1020F01D110366B
:102A900000E0143627B1306840EA0900306003E0F6
:102AA000306820EA09003060BDE8F0870038014056
:102AB0000044004000480040004C004000500040EE
:102AC000183200082DE9F04786B005460C4600266E
:102AD000B24600BFB14600276B4885420BD06B4819
:102AE000854208D06A48854205D06A48854202D0AE
:102AF0006948854200D103E0B821684800F018FB1E
:102B0000206820B166492068884200D203E0B921DC
:102B1000624800F00DFBA08818B1A088B0F5805F76
:102B200000D103E0BA215D4800F002FBE08858B113
:102B3000E088B0F5805F07D0E088B0F5005F03D093
:102B4000E088B0F5405F00D103E0BB21534800F0BE
:102B5000EFFA208938B12089B0F5806F03D0208941
:102B6000B0F5C06F00D103E0BC214C4800F0E0FAA2
:102B700060894FF6F371084010B9608900B103E035
:102B8000BD21464800F0D4FAA08958B1A089B0F51B
:102B9000807F07D0A089B0F5007F03D0A089B0F571
:102BA000407F00D103E0BE213C4800F0C1FAA0897B
:102BB00068B13548854205D03448854202D0344852
:102BC000854200D103E0C221344800F0B1FA2F461B
:102BD0002E8A4CF6FF700640E08806432E82AE89AE
:102BE0004EF6F3100640A088218908436189084306
:102BF0000643AE81AE8A4FF6FF400640A0890643E9
:102C0000AE8201A8FEF77EFB1F48874202D1DDF8A5
:102C100010A001E0DDF80CA0A88900F4004040B14C
:102C20000AEBCA0000EB0A1021684900B0FBF1F87A
:102C300007E00AEBCA0000EB0A1021688900B0FB2C
:102C4000F1F86420B8FBF0F006013009642101FBC3
:102C50001089A88900F4004040B1322000EBC9007F
:102C6000B0FBF1F000F00700064308E0322000EB73
:102C700009106421B0FBF1F000F00F0006432E8133
:102C800006B0BDE8F0870000003801400044004075
:102C900000480040004C004000500040183200083E
:102CA00021AA440010B504460C4884420BD00C48BD
:102CB000844208D00B48844205D00B48844202D09D
:102CC0000A48844200D104E04FF41971084800F02A
:102CD0002FFAA088C0F3080010BD000000380140A2
:102CE0000044004000480040004C004000500040BC
:102CF0001832000838B504460020009000BF214675
:102D00000B4800F095F869460AA0FDF72DFA0098E7
:102D1000A04205D9214608A000F08AF8FF2038BD5E
:102D200013A000F085F800BF00BF0098C0B2F6E71E
:102D30005C320008256400000A0D5B6572726F72D8
:102D40005D20506C6561736520656E7465722076D8
:102D5000616C6964206E756D62657220626574775E
:102D600065656E203020616E6420256400000000DF
:102D70000A0D43757272656E746C7920636F6E66AE
:102D8000696775726564000070B504460D46294692
:102D9000204600F009F800BF80212046FFF724FDFF
:102DA0000028F9D070BD000070B504460D461148EA
:102DB00084420BD01048844208D01048844205D089
:102DC0000F48844202D00F48844200D104E040F210
:102DD00053210D4800F0ACF9B5F5007F00DA04E0AE
:102DE0004FF41571084800F0A3F9C5F30800A0805E
:102DF00070BD000000380140004400400048004021
:102E0000004C0040005000401832000870B50646E3
:102E10000C46154604E021783046FFF7B5FF641CE8
:102E2000281EA5F101018DB2F5D170BD00BFFEE7EE
:102E30000FB4054B10B503A9044A029800F018F826
:102E400010BC5DF814FB0000553100084000002064
:102E500002E008C8121F08C1002AFAD17047704763
:102E6000002001E001C1121F002AFBD170470000C1
:102E70002DE9FF4F8DB09B460F460446002606E025
:102E800025280BD05A460F999047641C761C207851
:102E90000028F5D111B03046BDE8F08F0025A846D6
:102EA0000122984900E0054314F8013F203B02FA53
:102EB00003F00842F7D120782E2817D114F8010F1B
:102EC00045F004052A280ED06FF02F022078A0F1DB
:102ED000300109290AD808EB880102EB410100EB17
:102EE0000108641CF2E757F8048B641C20786C28F6
:102EF0000DD004DC4C2812D06A2811D104E07428CB
:102F00000DD07A280CD10AE045F4001507E061786D
:102F100045F48015814202D1641C05F58015641CBE
:102F20002278692A45D008DC002AB3D0582A69D013
:102F3000632A10D0642A08D13BE0702A67D0732A34
:102F400013D0752A5CD0782A5CD010465A460F9967
:102F50009047761CD3E017F8040B8DF80000002092
:102F60008DF80100E946012003E057F8049B4FF07B
:102F7000FF3069074FF0000501D40AE06D1C45459C
:102F80000DDA8542FADB19F805100029F6D106E0C2
:102F90006D1C8542FCDB19F805100029F8D12E4480
:102FA00004E019F8010B5A460F9990476D1EF8D2AC
:102FB000A5E00A200021CDE90801C5F3025002284E
:102FC0000DD001CFC117031E71F100030DDA4FF0D0
:102FD000000CD0EB0C006CEB01012D2308E0FF1D71
:102FE00027F00707F7E80201EDE72B0504D52B23AF
:102FF0008DF8283001233BE0EB0739D02023F7E799
:103000000A2000E010200021CDE9080107E010208F
:10301000002145F00405CDE908014FF00808C5F38B
:10302000025002280FD001CF00214FF0000A2B07D9
:103030001FD5702A0DD0DDE908C38CF0100C5CEAB6
:10304000030C0CD015E0FF1D27F00707F7E802017D
:10305000EBE740228DF828204FF0010A0BE050EA00
:10306000010306D030238DF828308DF82920022363
:103070009A46582A04D024A20DF120090B9209E0A7
:1030800026A2F9E7DDE90823FDF724F90B9B9B5CF9
:1030900009F8013D50EA0102F4D1ADEB09002030FE
:1030A0000890680701D44FF001080899884502DDAF
:1030B000A8EB010000E000208046002506E00AA8F9
:1030C0005A46405D0F9990476D1C761C5545F6DBBE
:1030D00004E030205A460F999047761CB8F1000161
:1030E000A8F10108F5DC05E019F8010B5A460F9923
:1030F0009047761C0899481E08900029F4DC641C4F
:10310000C5E6000009280100303132333435363746
:103110003839616263646566000000003031323323
:1031200034353637383941424344454600000000C3
:1031300000BFFEE710B5044600BF20210448FFF79A
:1031400053FB0028F9D00248FFF7ACFD10BD00008A
:103150000038014070B504460D46E1B20548FFF75E
:1031600023FE00BF80210348FFF73EFB0028F9D073
:10317000204670BD0038014086B0FEF701FD4FF4D7
:10318000A060FDF791FFFEF7BDFCFFF7B9F9FFF76F
:1031900003FAFDF7E9FE0D48FEF720FB01A8FEF754
:1031A000B1F811E00A4890F8010168B1002008491F
:1031B00081F80101084690F8FF200648FFF726FE37
:1031C0000020034981F8FF00ECE7000034000020F4
:1031D000AC00002000380140DDDDDDDDDCBBBBDD07
:1031E000DDDDDDDDDDDDDDDD9888888888888888A7
:1031F00077777777778888888555555666666666C7
:1032000066666666666888888333333222222222A5
:10321000222222222228888D2E2E5C2E2E5C4C69A2
:10322000627261726965735C53544D33324631305A
:10323000785F5374645065726970685F4472697630
:1032400065725C7372635C73746D333266313078AF
:103250005F75736172742E63000000000A0D506C7C
:103260006561736520656E7465722076616C696452
:10327000206E756D626572206265747765656E207B
:103280003020616E6420256420616E642070726558
:10329000737320656E74657220746F20636F6E6641
:1032A00069726D00C4320008000000204800000070
:1032B000502E00080C33000848000020681200005F
:1032C000602E000800A24A04000000000000000078
:1032D00001020304060708090000000001020304BC
:1032E00001020304060708090204060800000000A2
:1032F0000000000000000000002614080602E40799
:0C330000000000000000000000000000C1
:0400000508000131BD
:00000001FF
