:020000040800F2
:10000000A006002045010008050900085508000861
:100010000109000835040008311200080000000042
:10002000000000000000000000000000DD0A0008E1
:10003000D9050008000000008D090008C90B000860
:100040005F0100085F0100085F0100085F01000810
:100050005F0100085F010008DD0500085F0100087E
:100060005F0100085F0100085F0100085F010008F0
:100070005F0100085F0100085F0100085F010008E0
:100080005F0100085F0100085F0100085F010008D0
:100090005F0100085F0100085F0100085F010008C0
:1000A0005F0100085F0100085F0100085F010008B0
:1000B000AD0C00085F0100085F0100085F01000847
:1000C0005F0100085F0100085F0100085F01000890
:1000D0005F010008910F0008E50F00085F010008AC
:1000E0005F0100085F0100085F0100085F01000870
:1000F0005F0100085F0100085F0100085F01000860
:100100005F0100085F0100085F0100085F0100084F
:100110005F0100085F0100085F0100085F0100083F
:100120005F0100085F0100085F0100085F0100082F
:10013000DFF80CD000F018F800480047551200080E
:10014000A00600200648804706480047FEE7FEE775
:10015000FEE7FEE7FEE7FEE7FEE7FEE7FEE7FEE777
:100160004D0C000831010008064C074D06E0E06820
:1001700040F0010394E8070098471034AC42F6D3EE
:10018000FFF7DAFFB4120008D412000821B1826828
:1001900042F00102826003E0826822F00102826084
:1001A000704721B1826842F48072826003E0826805
:1001B00022F4807282607047014600208A6802F053
:1001C00004020AB1012000E000207047014600202F
:1001D0008A6802F008020AB1012000E0002070479E
:1001E00030B502460020002350680F4C20400D79A6
:1001F0000C6844EA05242043506090680B4C204072
:10020000D1E902542C434D7944EA450420439060DF
:10021000D06A20F470000C7C641EE4B2234340EAF0
:100220000350D06230BD0000FFFEF0FFFDF7F1FF8C
:10023000F0B504460D4600200021092D11DDE068CF
:10024000A5F10A0606EB4607072606FA07F18843DA
:10025000A5F10A0606EB460603FA06F10843E0603C
:100260000CE0206905EB4507072606FA07F18843ED
:1002700005EB450603FA06F108432061072A0FDA69
:10028000606B561E06EB86071F2606FA07F18843A9
:10029000561E06EB860605FA06F10843606322E067
:1002A0000D2A0FDA206BD61F06EB86071F2606FAEB
:1002B00007F18843D61F06EB860605FA06F10843C8
:1002C000206310E0E06AA2F10D0606EB86071F2608
:1002D00006FA07F18843A2F10D0606EB860605FA39
:1002E00006F10843E062F0BD816841F008018160D9
:1002F000704721B1826842F4A002826003E0826804
:1003000022F4A00282607047816841F0040181609C
:100310007047000008B50121102000F065FB0220A5
:10032000ADF8000000208DF803006946014800F098
:10033000F7F908BD0010014010B5FFF7EBFF00F022
:1003400001F810BD00B591B00121084600F02CFB6A
:100350000121480200F048FB334800F079F83348A7
:100360000690334807900020089001200990002053
:100370000A900B904FF480700C9080000D9020201C
:100380000E9000020F900020109006A9264800F061
:1003900005F90121244800F04FF8002001908DF864
:1003A000080001208DF809004FF460200390002020
:1003B000049001208DF8140001A91C484C38FFF767
:1003C0000FFF4FF4404000F0E3FA052301220B2118
:1003D00016484C38FFF72CFF012114484C38FFF722
:1003E000E0FE012111484C38FFF7D0FE0F484C3891
:1003F000FFF77AFF00BF0D484C38FFF7E7FE0028F3
:10040000F9D10A484C38FFF77FFF00BF07484C3846
:10041000FFF7D2FE0028F9D1012104484C38FFF73C
:1004200068FF11B000BD0000080002404C240140EC
:100430003000002000BFFEE721B1026842F0010257
:10044000026004E002684FF6FE731A4002607047D3
:1004500001684FF6FE7211400160002101604160A9
:100460008160C1604B49884208D14A4908394968CE
:1004700041F00F01474A083A51608AE0454914317A
:10048000884208D143490839496841F0F001414A9E
:10049000083A51607DE03F492831884208D13D4902
:1004A0000839496841F470613A4A083A516070E08D
:1004B00038493C31884208D136490839496841F405
:1004C0007041344A083A516063E032495031884201
:1004D00008D130490839496841F470212D4A083A59
:1004E000516056E02B496431884208D129490839C6
:1004F000496841F47001274A083A516049E02549AA
:100500007831884208D123490839496841F070613F
:10051000204A083A51603CE01F49884206D1011F39
:10052000096841F00F01021F116032E01A491431CD
:10053000884208D11849091F096841F0F001164A9C
:10054000121F116025E014492831884208D1124950
:10055000091F096841F470610F4A121F116018E009
:100560000D493C31884208D10B49091F096841F403
:100570007041094A121F11600BE00749503188424F
:1005800007D10549091F096841F47021024A121F69
:1005900011607047080002400804024010B50022B4
:1005A000026847F6F0739A430C6A8B6823430C6920
:1005B00023434C6923438C692343CC6923434C6A0E
:1005C00023438C6A23431A430260CB6843600B6861
:1005D00083604B68C36010BD7047000010B50120F8
:1005E00000F020F858B10121054800F028F918B1B1
:1005F0000121044800F01FF9012000F005F810BDAA
:1006000000080140000C01400149086070470000EB
:1006100014040140024909680143014A116070470E
:1006200010040140014600200022074B1B6803EA2A
:100630000102054B14331B680B4013B10AB10120B2
:1006400000E0002070470000000401400021234921
:100650008279002A3AD00A46126803689A430B4608
:100660001A600A1D126803689A430B1D1A6002790A
:1006700011440A6803681A430A60184A083212686B
:1006800003689A43154B08331A601A1D12680368F1
:100690009A43124B0C331A604279102A0ED11A1F5A
:1006A000126803681A430D4B08331A601A1D12684A
:1006B00003681A43094B0C331A600DE0074942796D
:1006C00011440A6803681A430A6005E0027911447C
:1006D0000A6803689A430A607047000000040140FA
:1006E00030B500228B071C0F0F2303FA04F20B4BCB
:1006F0008C1053F824309343084C8D1044F8253067
:1007000023468C1053F824308C07240F00FA04F48D
:100710002343024C8D1044F8253030BD08000140C1
:100720002DE9F04102460025002600200023002488
:10073000002791F803C00CF00F0591F803C00CF0EE
:10074000100CBCF1000F03D091F802C04CEA050573
:1007500091F800C0BCF1000F31D0146800202BE0EC
:100760004FF0010C0CFA00F3B1F800C00CEA0306DC
:100770009E4220D183004FF00F0C0CFA03F7BC43CC
:1007800005FA03FC4CEA040491F803C0BCF1280FFD
:1007900006D14FF0010C0CFA00FCC2F814C00AE0BC
:1007A00091F803C0BCF1480F05D14FF0010C0CFAD1
:1007B00000FCC2F810C0401C0828D1D31460B1F866
:1007C00000C0BCF1FF0F34DD546800202EE000F1C2
:1007D000080C4FF0010808FA0CF3B1F800C00CEA5D
:1007E00003069E4221D183004FF00F0C0CFA03F751
:1007F000BC4305FA03FC4CEA040491F803C0BCF1C5
:10080000280F05D100F1080C08FA0CF8C2F8148082
:1008100091F803C0BCF1480F07D100F1080C4FF06C
:10082000010808FA0CF8C2F81080401C0828CED342
:100830005460BDE8F081C2684A40C2607047024619
:10084000002093680B400BB1012000E000207047AE
:100850000161704700BFFEE71FB50121042000F0D1
:10086000C3F80121084600F0BFF80120ADF80400EC
:1008700048208DF8070001A91348FFF751FF002118
:100880000846FFF72DFF0120029000208DF80C0094
:1008900008208DF80D0001208DF80E0002A8FFF74A
:1008A000D5FE06208DF8000002208DF80100012001
:1008B0008DF802008DF80300684600F025F801204D
:1008C000FFF7A8FE1FBD00000008014008B5012188
:1008D000082000F089F80120ADF8000010208DF804
:1008E000030001208DF8020069460448FFF718FF55
:1008F00001210248FFF7ACFF08BD0000000C0140D9
:1009000000BFFEE77047000070B5002100230F22F2
:10091000C47804B3154C246804F4E064C4F5E064BE
:10092000210AC1F10403CA40447804FA03F184782F
:100930001440214309010E4C0678A155047804F0B7
:100940001F050124AC4005786D11AD0005F1E025CF
:10095000C5F8004109E0047804F01F050124AC400B
:10096000044D0678761145F8264070BD0CED00E088
:1009700000E400E080E100E002490143024A116026
:10098000704700000000FA050CED00E07047000021
:1009900001460020034A506820F44040084350605C
:1009A000704700000010024029B1064A5269024314
:1009B000044B5A6104E0034A52698243014B5A6175
:1009C000704700000010024029B1064AD269024374
:1009D000044BDA6104E0034AD2698243014BDA61D5
:1009E000704700000010024029B1064A9269024394
:1009F000044B9A6104E0034A92698243014B9A6175
:100A0000704700000010024030B500210022002491
:100A100000232D4D6D6805F00C0121B1042905D08E
:100A2000082923D105E0294D056022E0274D056006
:100A30001FE0254D6D6805F47012234D6D6805F4B7
:100A40008034022505EB92421CB9214D55430560C7
:100A50000BE01D4D6D6805F400351DB11C4D55436F
:100A6000056002E0194D5543056002E0174D056031
:100A700000BF00BF144D6D6805F0F0010909154D68
:100A80006B5C0568DD4045600F4D6D6805F4E06105
:100A9000090A104D6B5C4568DD4085600A4D6D6844
:100AA00005F46051C90A0B4D6B5C4568DD40C560BB
:100AB000054D6D6805F44041890B074D6B5CC568B9
:100AC000B5FBF3F5056130BD0010024000127A005D
:100AD00000093D001400002024000020704710B5DC
:100AE00000F002F810BD00000CB50020019000904D
:100AF0003348006840F480303149086000BF304816
:100B0000006800F4003000900198401C01900098AB
:100B100018B90198B0F5A06FF1D12948006800F428
:100B2000003010B10120009001E0002000900098FA
:100B3000012843D12348006840F010002149086093
:100B40000846006820F0030008600846006840F08E
:100B5000020008601A484068194948600846406821
:100B600048600846406840F4806048600846406835
:100B700020F47C1048600846406840F4E810486063
:100B80000846006840F08070086000BF0C480068AC
:100B900000F000700028F9D00948406820F00300F8
:100BA000074948600846406840F00200486000BFBE
:100BB0000348406800F00C000828F9D10CBD000083
:100BC000001002400020024010B500F083F910BD73
:100BD00030B51A4800681A4AB0FBF2F1B1F1807FD3
:100BE00001D301201DE021F07F40401E4FF0E022A4
:100BF000506150170F22002807DA13071D0E114B02
:100C000000F00F04241F1D5503E013071C0E0E4BAC
:100C10001C5400BF00204FF0E022906107201061BB
:100C2000002008B100BFFEE74FF0E020006920F08F
:100C300001004FF0E021086130BD000000000020FD
:100C400040420F0018ED00E000E400E010B513484A
:100C5000006840F0010011490860084640681049EA
:100C600008400E494860084600680E4908400B4994
:100C700008600846006820F4802008600846406844
:100C800020F4FE0048604FF41F008860FFF727FF44
:100C90004FF000600449086010BD000000100240E1
:100CA0000000FFF8FFFFF6FE08ED00E010B501219F
:100CB000880700F063F8002846D00121880700F07B
:100CC0004EF822480088401C2049088008460088C9
:100CD000B0F57A7F0CD10020088008464088401C7F
:100CE0004880084640883C282EDD002048802BE0C4
:100CF00016480088322190FBF1F201FB120018BB6C
:100D0000134890F8000168B1114890F80001401EA6
:100D10000F4981F80001084690F8000110B9012040
:100D200081F801010B4890F8000168B1094890F87A
:100D30000001401E074981F80001084690F80001B3
:100D400010B9012081F8010110BD00002C00002025
:100D5000980000209A010020CA4302827047CA43CB
:100D60000282704721B1028842F00102028004E051
:100D700002884FF6FE731A400280704730B5024673
:100D8000002000230024158A05EA0103958905EA5D
:100D9000010413B10CB1012000E0002030BD1AB1F4
:100DA00083890B43838102E083898B43838170476E
:100DB000002202881D4B98420ED01D4B98420BD04A
:100DC000B0F1804F08D01B4B984205D01A4B984287
:100DD00002D01A4B984204D14FF68F731A404B88B9
:100DE0001A43174B984207D0164B984204D04FF63F
:100DF000FF431A40CB881A4302808B8883850B8877
:100E000003850A4B98420BD0094B984208D00E4BF1
:100E1000984205D00D4B984202D00D4B984201D11B
:100E20000B7A03860123838270470000002C014067
:100E3000003401400004004000080040000C004065
:100E400000100040001400400040014000440140F8
:100E5000004801401FB500241C4800681C49B0FB35
:100E6000F1F0401E84B201210846FFF7ADFD1C20C1
:100E70008DF80C0003208DF80D0001208DF80E0078
:100E80008DF80F0003A8FFF73FFD40F2E730ADF803
:100E90000400ADF800400020ADF80600ADF80200F7
:100EA0008DF8080069464FF08040FFF781FF01216F
:100EB0008807FFF751FF012211469007FFF76FFFE8
:100EC00001218807FFF74EFF1FBD00000000002032
:100ED00040420F000448006820B103480068401EEB
:100EE00001490860704700002800002010B586B056
:100EF000044601210420FFF777FD01218803FFF755
:100F000073FD4FF40070ADF8140018208DF8170031
:100F100003208DF8160005A91B48FFF701FC4FF4CC
:100F20008060ADF8140004208DF8170005A916485C
:100F3000FFF7F6FB25208DF8100001208DF8110039
:100F40008DF812008DF8130004A8FFF7DDFC009463
:100F50000020ADF80400ADF80600ADF80800ADF8CB
:100F60000C000C20ADF80A006946084800F0CCF8E7
:100F7000012240F22551054800F0A1F80121034863
:100F800000F05AF806B010BD0008014000380140DA
:100F900010B540F22551114800F067F8E8B10F484C
:100FA00000F01EF900F07F010D4890F8FF40601C32
:100FB0000B4A82F8FF001046015590F8FF00FF2809
:100FC00007DB0020114681F8010181F8FF0081F85C
:100FD00000010220024981F8000110BD00380140E3
:100FE0009800002010B540F22551114800F03DF85E
:100FF000E8B10F4800F0F4F800F07F010D4890F8D8
:10100000FF40601C0B4A82F8FF001046015590F823
:10101000FF00FF2807DB0020114681F8010181F85D
:10102000FF0081F800010220024981F8000110BD93
:10103000004400409A01002021B1828942F400520C
:10104000828104E082894DF6FF731A4082817047E5
:1010500002460020B1F5007F00D100BF13880B408D
:101060000BB1012000E00020704770B5024600245B
:1010700000230025002040F66A16B14200D100BFCF
:10108000C1F3421501F01F03012606FA03F3012DF7
:1010900002D19689334006E0022D02D1168A3340F0
:1010A00001E0968A33400C12012606FA04F41688F1
:1010B000344013B10CB1012000E0002070BDF0B548
:1010C0000346002400260025002040F66A17B94296
:1010D00000D100BF1846C1F3421401F01F060127DA
:1010E00007FA06F5012C01D10C3004E0022C01D1E5
:1010F000103000E014301AB107682F43076002E097
:101100000768AF430760F0BD2DE9F04786B005469C
:101110000E460024A24600BFA1460027B08900B1B8
:1011200000BF2F462C8A4CF6FF700440F088044321
:101130002C82AC894EF6F3100440B0883189084304
:10114000718908430443AC81AC8A4FF6FF400440E8
:10115000B0890443AC8201A8FFF756FC1F488742C0
:1011600002D1DDF810A001E0DDF80CA0A88900F4A0
:10117000004040B10AEBCA0000EB0A103168490098
:10118000B0FBF1F807E00AEBCA0000EB0A10316887
:101190008900B0FBF1F86420B8FBF0F004012009ED
:1011A000642101FB1089A88900F4004040B132207D
:1011B00000EBC900B0FBF1F000F00700044308E0C9
:1011C000322000EB09106421B0FBF1F000F00F00B9
:1011D00004432C8106B0BDE8F087000000380140D0
:1011E00001468888C0F30800704770B504460D4674
:1011F0002946204600F008F800BF80212046FFF76E
:1012000027FF0028F9D070BDC1F308028280704723
:1012100070B506460C46154604E021783046FFF7C7
:10122000E4FF641C281EA5F101018DB2F5D170BD4B
:1012300000BFFEE702E008C8121F08C1002AFAD169
:1012400070477047002001E001C1121F002AFBD146
:101250007047000086B0FFF7F9FC4FF4A060FFF77D
:101260008BFBFFF7B5FCFFF7F5FD4FF4E130FFF71F
:101270003DFEFFF72BFBFFF7EFFAFFF75DF801A844
:10128000FFF7C2FB11E0094890F8010168B10020A6
:10129000064981F80101084690F8FF200448FFF74D
:1012A000B7FF0020014981F8FF00ECE7980000201B
:1012B00000380140D4120008000000203400000073
:1012C0003412000808130008340000206C060000E7
:1012D0004412000800A24A040000000000000000C0
:1012E00001020304060708090000000001020304CC
:1012F00001020304060708090204060800000000B2
:081300000000000000000000E5
:0400000508000131BD
:00000001FF
