:020000040800F2
:10000000C00A002045010008E90D0008D50B0008D2
:10001000E50D00082D0200082D2600080000000054
:10002000000000000000000000000000B513000800
:100030002506000800000000490F0008A114000870
:100040005F0100085F0100085F0100082D12000831
:100050005F0100085F010008290600085F01000831
:100060005F0100085F0100085F0100085F010008F0
:100070005F0100085F0100085F0100085F010008E0
:1000800059020008CD0200085F0100085F01000866
:100090005F0100085F0100085F0100085F010008C0
:1000A0005F0100085F0100085F0100085F010008B0
:1000B000851500085F0100085F0100085F01000866
:1000C0005F0100085F0100085F0100085F01000890
:1000D0005F010008611F0008B51F00085F010008EC
:1000E0005F0100085F0100085F0100085F01000870
:1000F0005F0100085F0100085F0100085F01000860
:100100005F010008C91200085F0100085F010008D4
:100110005F0100085F0100085F0100085F0100083F
:100120005F0100085F0100085F0100085F0100082F
:10013000DFF80CD000F068F80048004759290008A3
:10014000C00A00200648804706480047FEE7FEE751
:10015000FEE7FEE7FEE7FEE7FEE7FEE7FEE7FEE777
:1001600025150008310100082DE9F05F0546002043
:1001700092469B4688460646814640241BE0284618
:1001800041464746224600F02FF853465A46C01AC9
:10019000914110D311461846224600F016F82D1A48
:1001A00067EB01084F4622460120002100F00DF8C0
:1001B00017EB00094E41201EA4F10104DFDC484684
:1001C00031462A464346BDE8F09F202A04DB203A08
:1001D00000FA02F1002070479140C2F1200320FA9A
:1001E00003F3194390407047202A04DB203A21FA98
:1001F00002F00021704721FA02F3D040C2F1200240
:100200009140084319467047064C074D06E0E068E8
:1002100040F0010394E8070098471034AC42F6D34D
:10022000FFF78AFFF0290008102A000800BFFEE748
:10023000014600BF0748406B00F045000028F9D098
:1002400040F2FF50034A9063104640690822104074
:10025000C0B270470080014010B54FF4001000F0AC
:10026000FFF840B30021144800F08AF84FF48010E2
:1002700000F048F84FF420401049086008E00F49AA
:100280000868411E0D4A116010B9032001F090FD6D
:100290000B490C4800F0E8FC0028F0D00121094887
:1002A00000F09AFC0748143000880648183000888F
:1002B00000200549088010BD6C0002403800002075
:1002C00004000010005400403600002010B54FF02C
:1002D000007000F0C5F870B10121074800F07CFC07
:1002E0000021064800F04CF84FF0807000F00AF84A
:1002F00000200349088010BD0054004080000240E7
:100300003400002010B5044604F0704010B10948D4
:10031000204008B904B104E040F20E2106A002F02A
:1003200007FB04F0805010B11348046001E013484B
:10033000446010BD0000F0EF2E2E5C2E2E5C4C6948
:10034000627261726965735C53544D333246313069
:10035000785F5374645065726970685F447269763F
:1003600065725C7372635C73746D333266313078BE
:100370005F646D612E6300000404024000000240CF
:1003800070B504460D46244884422AD022481430D1
:10039000844226D020482830844222D01E483C3057
:1003A00084421ED01C48503084421AD01A4864300F
:1003B000844216D018487830844212D017488442BC
:1003C0000FD01648143084420BD014482830844291
:1003D00007D012483C30844203D010485030844249
:1003E00000D104E040F229110DA002F0A1FA0DB1F4
:1003F000012D00D104E04FF4957109A002F098FAA4
:1004000025B1206840F00100206004E020684FF62C
:10041000FE710840206070BD0800024008040240E0
:100420002E2E5C2E2E5C4C69627261726965735C63
:1004300053544D3332463130785F53746450657293
:100440006970685F4472697665725C7372635C732D
:10045000746D3332663130785F646D612E630000F5
:1004600070B5044600250026012C7DD0022C7BD0DF
:10047000042C79D0082C77D0102C75D0202C73D078
:10048000402C71D0802C7FD0B4F5807F7CD0B4F527
:10049000007F79D0B4F5806F76D0B4F5006F73D05B
:1004A000B4F5805F70D0B4F5005F6DD0B4F5804FC7
:1004B0006AD0B4F5004F67D0B4F5803F64D0B4F58E
:1004C000003F61D0B4F5802F5ED0B4F5002F5BD033
:1004D000B4F5801F58D0B4F5001F55D0B4F5800F87
:1004E00052D0B4F5000F4FD0B4F1807F4CD0B4F1AE
:1004F000007F49D0B4F1806F46D0B4F1006F43D093
:100500002C48844240D0401C84423DD0801C844210
:100510003AD0001D844237D026480F30844233D071
:1005200024481F3084422FD022483F3084422BD0B1
:1005300020487F30844227D01E48FF30844223D099
:100540001D48844220D01D4884421DD01C4884424E
:100550001AD0B4F1102F17D04FEAF030844213D0E4
:100560001848844210D000E00EE0174884420BD0B7
:100570001648844208D01648844205D01548844263
:1005800002D01548844200D104E040F2B71113A014
:1005900002F0CEF904F0805010B12048066801E066
:1005A0001F48066806EA040008B1012500E000259E
:1005B000284670BD01000010000200100004001069
:1005C0000008001000400010008000100000011022
:1005D0000000021000000410000008102E2E5C2EF7
:1005E0002E5C4C69627261726965735C53544D3361
:1005F00032463130785F5374645065726970685F59
:100600004472697665725C7372635C73746D3332C5
:10061000663130785F646D612E6300000004024033
:10062000000002407047000010B5012000F042F8C1
:1006300058B10121054800F0F1F918B10121044831
:1006400000F092F9012000F005F810BD000801400B
:10065000000C014010B50446200D000508B904B196
:1006600003E0FC2102A002F063F91148046010BD10
:100670002E2E5C2E2E5C4C69627261726965735C11
:1006800053544D3332463130785F53746450657241
:100690006970685F4472697665725C7372635C73DB
:1006A000746D3332663130785F657874692E63001B
:1006B0001404014070B5044600250026012C31D0F9
:1006C000022C2FD0042C2DD0082C2BD0102C29D06C
:1006D000202C27D0402C25D0802C23D0B4F5807F2F
:1006E00020D0B4F5007F1DD0B4F5806F1AD0B4F5DA
:1006F000006F17D0B4F5805F14D0B4F5005F11D04F
:10070000B4F5804F0ED0B4F5004F0BD0B4F5803F58
:1007100008D0B4F5003F05D0B4F5802F02D0B4F571
:10072000002F00D103E0E52108A002F001F91748ED
:10073000006800EA0406154814300068204010B133
:100740000EB1012500E00025284670BD2E2E5C2E3E
:100750002E5C4C69627261726965735C53544D33EF
:1007600032463130785F5374645065726970685FE7
:100770004472697665725C7372635C73746D333254
:10078000663130785F657874692E6300000401403B
:100790002DE9F05F05460C464FF00009CA460026D9
:1007A0000027B046B3465948854211D05848854283
:1007B0000ED0584885420BD05748854208D057483C
:1007C000854205D05648854202D05648854200D120
:1007D00003E0B22154A002F0ABF8E078A0B1E078D9
:1007E000042811D0E07828280ED0E07848280BD0D3
:1007F000E078142808D0E078102805D0E0781C288C
:1008000002D0E078182800D103E0B32146A002F01E
:100810008FF8002010B9208800B103E0B42142A075
:1008200002F086F8E07800F00F09E07800F01000A0
:1008300080B1A078012805D0A078022802D0A07845
:10084000032800D103E0BB2137A002F071F8A078A3
:1008500040EA0909207838B3D5F8008000261FE067
:10086000012000FA06F7208800EA070ABA4516D1E7
:10087000B7000F2000FA07FB28EA0B0809FA07F077
:1008800040EA0808E078282803D10120B0406861D8
:1008900005E0E078482802D10120B0402861761CAC
:1008A000082EDDD3C5F800802088FF282BDDD5F881
:1008B0000480002623E006F10800012101FA00F778
:1008C000208800EA070ABA4518D1B7000F2000FABD
:1008D00007FB28EA0B0809FA07F040EA0808E07865
:1008E000282803D106F1080081406961E078482892
:1008F00004D106F10800012181402961761C082EEF
:10090000D9D3C5F80480BDE8F09F0000000801407D
:10091000000C01400010014000140140001801408B
:10092000001C0140002001402E2E5C2E2E5C4C69E4
:10093000627261726965735C53544D333246313073
:10094000785F5374645065726970685F4472697649
:1009500065725C7372635C73746D333266313078C8
:100960005F6770696F2E630070B504460D461448CA
:10097000844211D0134884420ED0134884420BD0D5
:100980001248844208D01248844205D0114884425B
:1009900002D01148844200D104E040F2B3110FA00C
:1009A00001F0C6FF002008B905B104E04FF4DA7188
:1009B0000AA001F0BDFFE0686840E06070BD000083
:1009C00000080140000C01400010014000140140EB
:1009D00000180140001C0140002001402E2E5C2E1A
:1009E0002E5C4C69627261726965735C53544D335D
:1009F00032463130785F5374645065726970685F55
:100A00004472697665725C7372635C73746D3332C1
:100A1000663130785F6770696F2E630070B5054688
:100A20000C4600262848854211D0284885420ED021
:100A3000274885420BD02748854208D02648854262
:100A400005D02648854202D02548854200D104E0E1
:100A50004FF48F7123A001F06BFF012C25D0022CE5
:100A600023D0042C21D0082C1FD0102C1DD0202CDA
:100A70001BD0402C19D0802C17D0B4F5807F14D017
:100A8000B4F5007F11D0B4F5806F0ED0B4F5006FCF
:100A90000BD0B4F5805F08D0B4F5005F05D0B4F595
:100AA000804F02D0B4F5004F00D104E040F21F1196
:100AB0000CA001F03DFFA868204008B1012600E02D
:100AC0000026304670BD000000080140000C0140C7
:100AD000001001400014014000180140001C0140BA
:100AE000002001402E2E5C2E2E5C4C6962726172D9
:100AF0006965735C53544D3332463130785F5374BB
:100B0000645065726970685F4472697665725C737F
:100B100072635C73746D3332663130785F6770690D
:100B20006F2E630070B504460D461348844211D001
:100B3000124884420ED0124884420BD0114884429D
:100B400008D01148844205D01048844202D0104891
:100B5000844200D104E040F269110EA001F0E8FEE9
:100B6000002008B905B104E04FF4B57109A001F007
:100B7000DFFE256170BD000000080140000C01404F
:100B8000001001400014014000180140001C014009
:100B9000002001402E2E5C2E2E5C4C696272617228
:100BA0006965735C53544D3332463130785F53740A
:100BB000645065726970685F4472697665725C73CF
:100BC00072635C73746D3332663130785F6770695D
:100BD0006F2E630000BFFEE770B504460D46104857
:100BE000844202D00F48844200D104E040F2A511B3
:100BF0000DA001F09DFE0DB1012D00D104E04FF4D8
:100C0000D37109A001F094FE25B1208840F4007052
:100C1000208004E020884FF6FF510840208070BDFE
:100C200000540040005800402E2E5C2E2E5C4C6973
:100C3000627261726965735C53544D333246313070
:100C4000785F5374645065726970685F4472697646
:100C500065725C7372635C73746D333266313078C5
:100C60005F6932632E6300007CB505460C460026A2
:100C70000020019000903648854202D035488542D8
:100C800000D104E040F2734133A001F051FEB4F50D
:100C9000000F3FD0B4F5800F3CD0B4F5001F39D021
:100CA000B4F5801F36D0B4F5802F33D0B4F5003FB3
:100CB00030D0B4F5803F2DD0374884422AD0374811
:100CC000844227D0B4F1102F24D03548844221D05B
:100CD000344884421ED0344884421BD03348844276
:100CE00018D032488038844214D03048C03884420A
:100CF00010D02E48F03884420CD02C48F83884426A
:100D000008D0001F844205D0801E844202D0401EBD
:100D1000844200D104E040F274410FA001F008FECB
:100D20000095200F019024F07F44019818B100989D
:100D30001430009003E0240C0098183000900098C4
:100D40000068204008B1012600E0002630467CBD46
:100D500000540040005800402E2E5C2E2E5C4C6942
:100D6000627261726965735C53544D33324631303F
:100D7000785F5374645065726970685F4472697615
:100D800065725C7372635C73746D33326631307894
:100D90005F6932632E630000008000100040001085
:100DA00000080010000400100002001000010010F4
:100DB00008B50121082000F011F90120ADF800006C
:100DC00010208DF8030001208DF8020069460448C8
:100DD000FFF7DEFC01210248FFF7A4FE08BD00007A
:100DE000000C014000BFFEE7704700002DE9F04114
:100DF0000446002500270F26E07810B1E07801288E
:100E000000D103E0752121A001F092FD6078102847
:100E100000DA03E076211DA001F08AFDA0781028F9
:100E200000DA03E0772119A001F082FDE07800B339
:100E30002448006800F4E060C0F5E060050AC5F1F0
:100E40000407EE40607800FA07F5A07830400543CB
:100E50002D011D4822788554207800F01F010120C3
:100E6000884021784911890001F1E021C1F8000191
:100E700009E0207800F01F01012088401349227802
:100E8000521141F82200BDE8F08100002E2E5C2EA8
:100E90002E5C4C69627261726965735C53544D33A8
:100EA00032463130785F5374645065726970685FA0
:100EB0004472697665725C7372635C6D6973632EEC
:100EC000630000000CED00E000E400E080E100E0E1
:100ED00010B50446B4F5E06F0BD0B4F5C06F08D080
:100EE000B4F5A06F05D0B4F5806F02D0B4F5407FA3
:100EF00000D103E0632104A001F01AFD1048204353
:100F00001049086010BD00002E2E5C2E2E5C4C692E
:100F1000627261726965735C53544D33324631308D
:100F2000785F5374645065726970685F4472697663
:100F300065725C7372635C6D6973632E630000009D
:100F40000000FA050CED00E07047000070B50446A3
:100F50000D461048204008B904B104E040F2694150
:100F60000DA001F0E5FC0DB1012D00D104E040F22F
:100F70006A4109A001F0DCFC2DB11748C06920438B
:100F80001549C86104E01448C069A0431249C8610A
:100F900070BD0000003601812E2E5C2E2E5C4C6947
:100FA000627261726965735C53544D3332463130FD
:100FB000785F5374645065726970685F44726976D3
:100FC00065725C7372635C73746D33326631307852
:100FD0005F7263632E6300000010024070B5044628
:100FE0000D461048204008B904B104E040F24A41DF
:100FF0000DA001F09DFC0DB1012D00D104E040F2E7
:101000004B4109A001F094FC2DB1174880692043A1
:101010001549886104E014488069A0431249886139
:1010200070BD00000200C0FF2E2E5C2E2E5C4C69AD
:10103000627261726965735C53544D33324631306C
:10104000785F5374645065726970685F4472697642
:1010500065725C7372635C73746D333266313078C1
:101060005F7263632E6300000010024030B5002100
:101070000022002400232D4D6D6805F00C0121B1E4
:10108000042905D0082923D105E0294D056022E077
:10109000274D05601FE0254D6D6805F47012234D46
:1010A0006D6805F48034022505EB92421CB9214D90
:1010B000554305600BE01D4D6D6805F400351DB10D
:1010C0001C4D5543056002E0194D5543056002E093
:1010D000174D056000BF00BF144D6D6805F0F001AD
:1010E0000909154D6B5C0568DD4045600F4D6D6865
:1010F00005F4E061090A104D6B5C4568DD408560D0
:101100000A4D6D6805F46051C90A0B4D6B5C45686A
:10111000DD40C560054D6D6805F44041890B074D04
:101120006B5CC568B5FBF3F5056130BD001002408E
:1011300000127A0000093D00140000202400002065
:1011400010B504464FF6F870204008B904B104E029
:1011500040F2411104A001F0EBFB13480088A043CA
:101160001149088010BD00002E2E5C2E2E5C4C69AB
:10117000627261726965735C53544D33324631302B
:10118000785F5374645065726970685F4472697601
:1011900065725C7372635C73746D33326631307880
:1011A0005F7274632E6300000428004070B504462B
:1011B0000025042C03D0022C01D0012C00D104E026
:1011C00040F2271108A001F0B3FB17480088204027
:1011D000C5B21548001F0088204010B10DB101258F
:1011E00000E00025284670BD2E2E5C2E2E5C4C693A
:1011F000627261726965735C53544D3332463130AB
:10120000785F5374645065726970685F4472697680
:1012100065725C7372635C73746D333266313078FF
:101220005F7274632E6300000428004010B5012033
:10123000FFF7BCFF38B10120FFF782FF0120024910
:10124000086000F003F810BD3000002000BF034824
:10125000008800F020000028F9D0704704280040E2
:1012600010B504460648204008B904B104E040F235
:101270000E3104A001F05CFB1248846310BD000035
:1012800000F83FFF2E2E5C2E2E5C4C69627261725C
:101290006965735C53544D3332463130785F537413
:1012A000645065726970685F4472697665725C73D8
:1012B00072635C73746D3332663130785F73646966
:1012C0006F2E63000080014010B500F047F810BD9C
:1012D00070B504460D4604F07F4008B904B104E03F
:1012E0004FF49B710CA001F023FB0DB1012D00D137
:1012F00004E040F2371108A001F01AFB2DB11648A6
:10130000C06B20431449C86304E01348C06BA0437A
:101310001149C86370BD00002E2E5C2E2E5C4C69F6
:10132000627261726965735C53544D333246313079
:10133000785F5374645065726970685F447269764F
:1013400065725C7372635C73746D333266313078CE
:101350005F7364696F2E63000080014010B511480F
:10136000006801280BD100200F49886040F24C40F2
:10137000C8600C20FEF75CFF0C49087002E00020FA
:101380000A4908704FF48070FFF76AFF00214FF49C
:101390008070FFF79DFF0120054908600348007831
:1013A00010BD000048000020008001404C000020DB
:1013B00050000020704710B500F002F810BD00008A
:1013C0000CB50020019000903348006840F4803054
:1013D0003149086000BF3048006800F400300090D8
:1013E0000198401C0190009818B90198B0F5A06FC1
:1013F000F1D12948006800F4003010B101200090BC
:1014000001E0002000900098012843D123480068A3
:1014100040F01000214908600846006820F00300F1
:1014200008600846006840F0020008601A484068FA
:10143000194948600846406848600846406840F4DA
:10144000806048600846406820F47C104860084688
:10145000406840F4E81048600846006840F080703A
:10146000086000BF0C48006800F000700028F9D048
:101470000948406820F00300074948600846406872
:1014800040F00200486000BF0348406800F00C00D4
:101490000828F9D10CBD00000010024000200240D5
:1014A00010B500F0FDFC10BD30B51A4800681A4AAE
:1014B000B0FBF2F1B1F1807F01D301201DE021F0FA
:1014C0007F40401E4FF0E022506150170F2200284D
:1014D00007DA13071D0E114B00F00F04241F1D55D2
:1014E00003E013071C0E0E4B1C5400BF00204FF0EE
:1014F000E022906107201061002008B100BFFEE7E4
:101500004FF0E020006920F001004FF0E021086179
:1015100030BD00000000002040420F0018ED00E048
:1015200000E400E010B51348006840F001001149E4
:10153000086008464068104908400E49486008465F
:1015400000680E4908400B4908600846006820F40E
:10155000802008600846406820F4FE0048604FF490
:101560001F008860FFF727FF4FF000600449086004
:1015700010BD0000001002400000FFF8FFFFF6FE63
:1015800008ED00E010B50121880700F0F7F9002808
:1015900046D00121880700F0D5F822480088401C79
:1015A0002049088008460088B0F57A7F0CD10020D9
:1015B000088008464088401C4880084640883C28EF
:1015C0002EDD002048802BE016480088322190FB59
:1015D000F1F201FB120018BB134890F8000168B14A
:1015E000114890F80001401E0F4981F8000108469B
:1015F00090F8000110B9012081F801010B4890F822
:10160000000168B1094890F80001401E074981F8BF
:101610000001084690F8000110B9012081F801018D
:1016200010BD00002C000020BC000020BE010020E6
:1016300070B504460D46234884422FD0B4F1804F44
:101640002CD02148844229D02048844226D02048EA
:10165000844223D01F48844220D01F4884421DD09A
:101660001E4884421AD01E48844217D01D48844226
:1016700014D01D48844211D01C4884420ED01C480E
:1016800084420BD01B48844208D01B48844205D0BA
:101690001A48844202D01A48844200D104E040F63D
:1016A0002B2118A001F044F905F4614008B905B1F7
:1016B00004E040F62C2113A001F03AF9E84320821F
:1016C00070BD0000002C01400004004000080040F4
:1016D000000C0040001000400014004000340140A5
:1016E000004C0140005001400054014000180040EF
:1016F000001C004000200040004001400044014028
:10170000004801402E2E5C2E2E5C4C696272617284
:101710006965735C53544D3332463130785F53748E
:10172000645065726970685F4472697665725C7353
:1017300072635C73746D3332663130785F74696DD7
:101740002E63000070B504460D46234884422FD016
:10175000B4F1804F2CD02148844229D020488442C3
:1017600026D02048844223D01F48844220D01F48DE
:1017700084421DD01E4884421AD01E48844217D08D
:101780001D48844214D01D48844211D01C48844214
:101790000ED01C4884420BD01B48844208D01B4802
:1017A000844205D01A48844202D01A48844200D1AB
:1017B00004E040F6772118A001F0BAF805F47F4064
:1017C00008B905B104E040F6782113A001F0B0F8A3
:1017D000E843208270BD0000002C0140000400405E
:1017E00000080040000C00400010004000140040C1
:1017F00000340140004C01400050014000540140C1
:1018000000180040001C0040002000400040014043
:1018100000440140004801402E2E5C2E2E5C4C6995
:10182000627261726965735C53544D333246313074
:10183000785F5374645065726970685F447269764A
:1018400065725C7372635C73746D333266313078C9
:101850005F74696D2E63000070B504460D4627481D
:1018600084422FD0B4F1804F2CD02548844229D017
:101870002448844226D02448844223D023488442EA
:1018800020D0234884421DD0224884421AD02248C6
:10189000844217D02148844214D02148844211D078
:1018A000204884420ED0204884420BD01F488442F6
:1018B00008D01F48844205D01E48844202D01E48EA
:1018C000844200D104E040F229311CA001F030F83C
:1018D0000DB1012D00D104E040F22A3117A001F032
:1018E00027F825B1208840F00100208004E02088FE
:1018F0004FF6FE710840208070BD0000002C0140B2
:101900000004004000080040000C004000100040AF
:101910000014004000340140004C014000500140E0
:101920000054014000180040001C0040002000400E
:101930000040014000440140004801402E2E5C2E32
:101940002E5C4C69627261726965735C53544D33ED
:1019500032463130785F5374645065726970685FE5
:101960004472697665725C7372635C73746D333252
:10197000663130785F74696D2E6300002DE9F041A7
:1019800004460D4600260027B0462F4884422FD03B
:10199000B4F1804F2CD02D48844229D02C48844269
:1019A00026D02C48844223D02B48844220D02B4878
:1019B00084421DD02A4884421AD02A48844217D033
:1019C0002948844214D02948844211D028488442AE
:1019D0000ED0284884420BD02748844208D027489C
:1019E000844205D02648844202D02648844200D151
:1019F00004E040F64D2124A000F09AFF012D0DD007
:101A0000022D0BD0042D09D0082D07D0102D05D0A4
:101A1000202D03D0402D01D0802D00D104E040F6D0
:101A20004E2119A000F084FF208A00EA0507A08952
:101A300000EA050827B1B8F1000F01D0012600E047
:101A400000263046BDE8F081002C01400004004033
:101A500000080040000C004000100040001400404E
:101A600000340140004C014000500140005401404E
:101A700000180040001C00400020004000400140D1
:101A800000440140004801402E2E5C2E2E5C4C6923
:101A9000627261726965735C53544D333246313002
:101AA000785F5374645065726970685F44726976D8
:101AB00065725C7372635C73746D33326631307857
:101AC0005F74696D2E63000070B504460D461646BE
:101AD0002A4884422FD0B4F1804F2CD02848844229
:101AE00029D02848844226D02748844223D027483A
:101AF000844220D0264884421DD0264884421AD0F1
:101B00002548844217D02548844214D02448844272
:101B100011D0244884420ED0234884420BD023485D
:101B2000844208D02248844205D02248844202D010
:101B30002148844200D104E040F26B311FA000F044
:101B4000F7FE05F47F4008B905B104E04FF45B717E
:101B50001AA000F0EDFE0EB1012E00D104E040F21B
:101B60006D3116A000F0E4FE1EB1A0892843A081CB
:101B700002E0A089A843A08170BD0000002C0140B4
:101B80000004004000080040000C0040001000402D
:101B90000014004000340140004C0140005001405E
:101BA0000054014000180040001C0040002000408C
:101BB0000040014000440140004801402E2E5C2EB0
:101BC0002E5C4C69627261726965735C53544D336B
:101BD00032463130785F5374645065726970685F63
:101BE0004472697665725C7372635C73746D3332D0
:101BF000663130785F74696D2E63000070B50446FD
:101C00000D4600264A4884422FD0B4F1804F2CD094
:101C10004848844229D04848844226D047488442D4
:101C200023D04748844220D0464884421DD04648AD
:101C300084421AD04548844217D04548844214D083
:101C40004448844211D0444884420ED043488442E0
:101C50000BD04348844208D04248844205D04248D1
:101C6000844202D04148844200D103E0E72140A0F1
:101C700000F05EFE688858B16888102808D068882F
:101C8000202805D06888402802D06888602800D1C4
:101C900003E0E82136A000F04BFEE88838B1E88880
:101CA000B0F5807F03D0E888B0F5007F00D103E075
:101CB000E9212FA000F03CFE26881D4884420ED06A
:101CC000214884420BD0B4F1804F08D01948844297
:101CD00005D01948844202D01848844204D14FF6F6
:101CE0008F700640688806431548844207D015481F
:101CF000844204D04FF6FF400640E8880643268021
:101D0000A888A08528882085094884420BD00E48E1
:101D1000844208D01348844205D01348844202D03C
:101D20001248844201D1287A20860120A08270BD09
:101D3000002C01400004004000080040000C00405E
:101D4000001000400014004000340140004C0140ED
:101D5000005001400054014000180040001C0040A9
:101D60000020004000400140004401400048014084
:101D70002E2E5C2E2E5C4C69627261726965735CFA
:101D800053544D3332463130785F5374645065722A
:101D90006970685F4472697665725C7372635C73C4
:101DA000746D3332663130785F74696D2E63000074
:101DB00010B5044600BF2346412203A108A000F04D
:101DC00037FC00BF002010BD2E2E5C2E2E5C41542F
:101DD00032344378785C617432346378782E6300EF
:101DE0003C3C2D454550524F4D2D44454255472DC5
:101DF0003E3E203C202573203E5B25645D0A494918
:101E00004320B5C8B4FDB3ACCAB1212020456572EA
:101E1000726F72436F6465203D2025640A0A0000DA
:101E20001FB500241C4800681C49B0FBF1F0401E9F
:101E300084B201210846FFF789F81C208DF80C00B8
:101E400003208DF80D0001208DF80E008DF80F0095
:101E500003A8FEF7CBFF40F2E730ADF80400ADF881
:101E600000400020ADF80600ADF802008DF8080033
:101E700069464FF08040FFF7C1FE01218807FFF758
:101E8000D7FB012211469007FFF71EFE01218807AC
:101E9000FFF7E2FC1FBD00000000002040420F00E1
:101EA0000448006820B103480068401E01490860EA
:101EB000704700002800002000B587B001210420F1
:101EC000FFF78CF801218803FFF788F84FF40070C2
:101ED000ADF8180018208DF81B0003208DF81A00AB
:101EE00006A91D48FEF754FC4FF48060ADF81800B9
:101EF00004208DF81B0006A91748FEF749FC252091
:101F00008DF8140001208DF815008DF816008DF85D
:101F1000170005A8FEF76AFF4FF4E130019000209A
:101F2000ADF80800ADF80A00ADF80C00ADF81000EF
:101F30000C20ADF80E0001A9084800F00DFA0122AE
:101F400040F22551054800F07FF90121034800F0D7
:101F50005BF807B000BD00000008014000380140F8
:101F600010B540F22551114800F0E4F8E0B10F48F7
:101F700000F0E2FAC1B20E4890F8FF40601C0C4A33
:101F800082F8FF001046015590F8FF00FF2807DB9C
:101F90000020114681F8010181F8FF0081F800015D
:101FA0000220034981F8000110BD00000038014003
:101FB000BC00002010B540F22551114800F0BAF8DD
:101FC000E0B10F4800F0B8FAC1B20E4890F8FF40F7
:101FD000601C0C4A82F8FF001046015590F8FF0083
:101FE000FF2807DB0020114681F8010181F8FF007E
:101FF00081F800010220034981F8000110BD0000B2
:1020000000440040BE01002070B504460D4615484E
:1020100084420BD01448844208D01448844205D02E
:102020001348844202D01348844200D104E04FF4A4
:10203000B171114800F07CFC0DB1012D00D104E01C
:1020400040F263110C4800F073FC25B1A08940F404
:102050000050A08104E0A0894DF6FF710840A081E6
:1020600070BD0000003801400044004000480040BE
:10207000004C004000500040AC29000870B50546F7
:102080000C460026254885420BD02548854208D0BD
:102090002448854205D02448854202D02348854201
:1020A00000D104E040F26E31214800F041FC012CE7
:1020B00013D0802C11D0402C0FD0202C0DD0102C00
:1020C0000BD0B4F5807F08D0B4F5007F05D0082C84
:1020D00003D0042C01D0022C00D104E040F26F3177
:1020E000134800F025FCB4F5007F0ED10B48854263
:1020F00005D00B48854202D00A48854200D104E051
:1021000040F273310A4800F013FC2888204008B1DF
:10211000012600E00026304670BD00000038014076
:102120000044004000480040004C00400050004087
:10213000AC2900082DE9F04705460C46002700268B
:10214000B046B1463A4885420BD03A48854208D05D
:102150003948854205D03948854202D03848854201
:1021600000D104E040F2C131364800F0E1FB282CF8
:1021700020D040F2277084421CD040F22660844276
:1021800018D040F22550844214D040F224408442BA
:1021900010D040F6460084420CD040F66A108442CB
:1021A00008D0B4F5587F05D0B4F5187F02D0B4F547
:1021B000B07F00D104E040F2C231224800F0B8FB09
:1021C00040F66A1084420ED11948854205D019485C
:1021D000854202D01848854200D104E040F2C63161
:1021E000184800F0A5FBC4F3421804F01F060120B4
:1021F00000FA06F6B8F1010F02D1A889064007E0FF
:10220000B8F1020F02D1288A064001E0A88A0640F0
:102210002712012000FA07F7288807401EB117B1DE
:102220004FF0010901E04FF000094846BDE8F08792
:10223000003801400044004000480040004C00408D
:1022400000500040AC2900082DE9F04705460C4637
:1022500017464FF00008C246C1460026384885425E
:102260000BD03848854208D03748854205D03748DA
:10227000854202D03648854200D104E040F28911FF
:10228000344800F055FB282C19D040F227708442C6
:1022900015D040F22660844211D040F2255084428D
:1022A0000DD040F22440844209D040F646008442DA
:1022B00005D040F66A10844201D0602C00D104E0C1
:1022C0004FF4C571234800F033FB0FB1012F00D14B
:1022D00004E040F28B111F4800F02AFB40F66A1020
:1022E00084420ED11648854205D01648854202D058
:1022F0001548854200D104E040F28F11154800F0E6
:1023000017FB2E46C4F3421804F01F0A012000FAFE
:102310000AF9B8F1010F01D10C3605E0B8F1020F4E
:1023200001D1103600E0143627B1306840EA0900C8
:10233000306003E0306820EA09003060BDE8F087D3
:10234000003801400044004000480040004C00407C
:1023500000500040AC2900082DE9F04786B0054642
:102360000C460026B24600BFB14600276B488542A6
:102370000BD06B48854208D06A48854205D06A4830
:10238000854202D06948854200D103E0B8216848FF
:1023900000F0CEFA206820B166492068884200D259
:1023A00003E0B921624800F0C3FAA08818B1A08800
:1023B000B0F5805F00D103E0BA215D4800F0B8FAC3
:1023C000E08858B1E088B0F5805F07D0E088B0F5CC
:1023D000005F03D0E088B0F5405F00D103E0BB218F
:1023E000534800F0A5FA208938B12089B0F5806FF4
:1023F00003D02089B0F5C06F00D103E0BC214C4868
:1024000000F096FA60894FF6F371084010B96089C0
:1024100000B103E0BD21464800F08AFAA08958B116
:10242000A089B0F5807F07D0A089B0F5007F03D0E8
:10243000A089B0F5407F00D103E0BE213C4800F008
:1024400077FAA08968B13548854205D0344885427D
:1024500002D03448854200D103E0C221344800F064
:1024600067FA2F462E8A4CF6FF700640E088064336
:102470002E82AE894EF6F3100640A08821890843CB
:10248000618908430643AE81AE8A4FF6FF4006409D
:10249000A0890643AE8201A8FEF7E8FD1F488742E7
:1024A00002D1DDF810A001E0DDF80CA0A88900F44D
:1024B000004040B10AEBCA0000EB0A102168490055
:1024C000B0FBF1F807E00AEBCA0000EB0A10216844
:1024D0008900B0FBF1F86420B8FBF0F00601300988
:1024E000642101FB1089A88900F4004040B132202A
:1024F00000EBC900B0FBF1F000F00700064308E074
:10250000322000EB09106421B0FBF1F000F00F0065
:1025100006432E8106B0BDE8F08700000038014078
:102520000044004000480040004C00400050004083
:10253000AC29000821AA440010B504460C48844286
:102540000BD00C48844208D00B48844205D00B487D
:10255000844202D00A48844200D104E04FF4197149
:10256000084800F0E5F9A088C0F3080010BD00009D
:10257000003801400044004000480040004C00404A
:1025800000500040AC29000870B504460D462946AD
:10259000204600F009F800BF80212046FFF76EFDBD
:1025A0000028F9D070BD000070B504460D461148F2
:1025B00084420BD01048844208D01048844205D091
:1025C0000F48844202D00F48844200D104E040F218
:1025D00053210D4800F0ACF9B5F5007F00DA04E0B6
:1025E0004FF41571084800F0A3F9C5F30800A08066
:1025F00070BD000000380140004400400048004029
:10260000004C004000500040AC29000870B5064660
:102610000C46154604E021783046FFF7B5FF641CF0
:10262000281EA5F101018DB2F5D170BD00BFFEE7F6
:102630000FB4054B10B503A9044A029800F018F82E
:1026400010BC5DF814FB0000352900085400002080
:1026500002E008C8121F08C1002AFAD1704770476B
:10266000002001E001C1121F002AFBD170470000C9
:102670002DE9FF4F8DB09B460F460446002606E02D
:1026800025280BD05A460F999047641C761C207859
:102690000028F5D111B03046BDE8F08F0025A846DE
:1026A0000122984900E0054314F8013F203B02FA5B
:1026B00003F00842F7D120782E2817D114F8010F23
:1026C00045F004052A280ED06FF02F022078A0F1E3
:1026D000300109290AD808EB880102EB410100EB1F
:1026E0000108641CF2E757F8048B641C20786C28FE
:1026F0000DD004DC4C2812D06A2811D104E07428D3
:102700000DD07A280CD10AE045F4001507E0617875
:1027100045F48015814202D1641C05F58015641CC6
:102720002278692A45D008DC002AB3D0582A69D01B
:10273000632A10D0642A08D13BE0702A67D0732A3C
:1027400013D0752A5CD0782A5CD010465A460F996F
:102750009047761CD3E017F8040B8DF8000000209A
:102760008DF80100E946012003E057F8049B4FF083
:10277000FF3069074FF0000501D40AE06D1C4545A4
:102780000DDA8542FADB19F805100029F6D106E0CA
:102790006D1C8542FCDB19F805100029F8D12E4488
:1027A00004E019F8010B5A460F9990476D1EF8D2B4
:1027B000A5E00A200021CDE90801C5F30250022856
:1027C0000DD001CFC117031E71F100030DDA4FF0D8
:1027D000000CD0EB0C006CEB01012D2308E0FF1D79
:1027E00027F00707F7E80201EDE72B0504D52B23B7
:1027F0008DF8283001233BE0EB0739D02023F7E7A1
:102800000A2000E010200021CDE9080107E0102097
:10281000002145F00405CDE908014FF00808C5F393
:10282000025002280FD001CF00214FF0000A2B07E1
:102830001FD5702A0DD0DDE908C38CF0100C5CEABE
:10284000030C0CD015E0FF1D27F00707F7E8020185
:10285000EBE740228DF828204FF0010A0BE050EA08
:10286000010306D030238DF828308DF8292002236B
:102870009A46582A04D024A20DF120090B9209E0AF
:1028800026A2F9E7DDE90823FDF76EFC0B9B9B5CB4
:1028900009F8013D50EA0102F4D1ADEB0900203006
:1028A0000890680701D44FF001080899884502DDB7
:1028B000A8EB010000E000208046002506E00AA801
:1028C0005A46405D0F9990476D1C761C5545F6DBC6
:1028D00004E030205A460F999047761CB8F1000169
:1028E000A8F10108F5DC05E019F8010B5A460F992B
:1028F0009047761C0899481E08900029F4DC641C57
:10290000C5E600000928010030313233343536374E
:10291000383961626364656600000000303132332B
:1029200034353637383941424344454600000000CB
:1029300000BFFEE770B504460D46E1B20548FFF75B
:1029400033FE00BF80210348FFF798FB0028F9D031
:10295000204670BD0038014086B0FEF7E3FD4FF41D
:10296000A060FEF7B5FAFEF79FFDFFF759FAFFF7F3
:10297000A3FAFEF71DFA01A8FEF778FB11E009485B
:1029800090F8010168B10020064981F8010108466C
:1029900090F8FF200448FFF739FE0020014981F834
:1029A000FF00ECE7BC000020003801402E2E5C2E1A
:1029B0002E5C4C69627261726965735C53544D336D
:1029C00032463130785F5374645065726970685F65
:1029D0004472697665725C7372635C73746D3332D2
:1029E000663130785F75736172742E630000000089
:1029F000102A00080000002058000000502600089F
:102A0000682A000858000020680A000060260008B4
:102A100000A24A04000000000000000001020304BC
:102A20000607080900000000010203040102030474
:102A30000607080902040608000000000000000064
:102A40000000000000000000001000000000000076
:102A50000000000000000000000000000000000076
:082A600000000000000000006E
:0400000508000131BD
:00000001FF
