:020000040800F2
:10000000A00600204501000811040008D3030008E1
:100010000D0400082F020008D50D000800000000A4
:100020000000000000000000000000001B060008A7
:100030003302000800000000990400086907000866
:100040005F0100085F0100085F0100085F01000810
:100050005F0100085F010008350200085F01000829
:100060005F0100085F0100085F0100085F010008F0
:100070005F0100085F0100085F0100085F010008E0
:100080005F0100085F0100085F0100085F010008D0
:100090005F0100085F0100085F0100085F010008C0
:1000A0005F0100085F0100085F0100085F010008B0
:1000B0004D0800085F0100085F0100085F010008AB
:1000C0005F0100085F0100085F0100085F01000890
:1000D0005F010008350B0008890B00085F0100086C
:1000E0005F0100085F0100085F0100085F01000870
:1000F0005F0100085F0100085F0100085F01000860
:100100005F0100085F0100085F0100085F0100084F
:100110005F0100085F0100085F0100085F0100083F
:100120005F0100085F0100085F0100085F0100082F
:10013000DFF80CD000F04AF800480047F51200083C
:10014000A00600200648804706480047FEE7FEE775
:10015000FEE7FEE7FEE7FEE7FEE7FEE7FEE7FEE777
:10016000ED070008310100082DE9F05F0546002089
:1001700092469B4688460646814640241BE0284618
:1001800041464746224600F042F853465A46C01AB6
:10019000914110D311461846224600F029F82D1A35
:1001A00067EB01084F4622460120002100F020F8AD
:1001B00017EB00094E41201EA4F10104DFDC484684
:1001C00031462A464346BDE8F09F0000064C074DE5
:1001D00006E0E06840F0010394E807009847103417
:1001E000AC42F6D3FFF7A8FF14140008341400083B
:1001F000202A04DB203A00FA02F1002070479140E7
:10020000C2F1200320FA03F3194390407047202ADB
:1002100004DB203A21FA02F00021704721FA02F3B0
:10022000D040C2F12002914008431946704700BFF8
:10023000FEE7704710B5012000F018F858B1012111
:10024000054800F0B6F818B10121044800F0ADF8F7
:10025000012000F005F810BD00080140000C01402D
:100260000149086070470000140401400146002065
:100270000022074B1B6803EA0102054B14331B687D
:100280000B4013B10AB1012000E0002070470000CC
:10029000000401402DE9F04102460025002600201F
:1002A00000230024002791F803C00CF00F0591F8FB
:1002B00003C00CF0100CBCF1000F03D091F802C089
:1002C0004CEA050591F800C0BCF1000F31D014686C
:1002D00000202BE04FF0010C0CFA00F3B1F800C045
:1002E0000CEA03069E4220D183004FF00F0C0CFA5B
:1002F00003F7BC4305FA03FC4CEA040491F803C07D
:10030000BCF1280F06D14FF0010C0CFA00FCC2F82A
:1003100014C00AE091F803C0BCF1480F05D14FF0BA
:10032000010C0CFA00FCC2F810C0401C0828D1D304
:100330001460B1F800C0BCF1FF0F34DD5468002038
:100340002EE000F1080C4FF0010808FA0CF3B1F8A8
:1003500000C00CEA03069E4221D183004FF00F0C2F
:100360000CFA03F7BC4305FA03FC4CEA040491F8C9
:1003700003C0BCF1280F05D100F1080C08FA0CF8F5
:10038000C2F8148091F803C0BCF1480F07D100F106
:10039000080C4FF0010808FA0CF8C2F81080401C55
:1003A0000828CED35460BDE8F081C2684A40C260DC
:1003B00070470246002093680B400BB1012000E01B
:1003C00000207047016170470AB1016100E041619E
:1003D000704700BFFEE7000008B50121082000F0CB
:1003E0006DF80120ADF8000010208DF80300012009
:1003F0008DF8020069460448FFF74CFF01210248CE
:10040000FFF7E0FF08BD0000000C014000BFFEE761
:100410007047000070B5002100230F22C47804B398
:10042000154C246804F4E064C4F5E064210AC1F1C9
:100430000403CA40447804FA03F184781440214349
:1004400009010E4C0678A155047804F01F0501241B
:10045000AC4005786D11AD0005F1E025C5F800410F
:1004600009E0047804F01F050124AC40044D06782F
:10047000761145F8264070BD0CED00E000E400E088
:1004800080E100E002490143024A11607047000028
:100490000000FA050CED00E07047000029B1064AA3
:1004A000D2690243044BDA6104E0034AD269824311
:1004B000014BDA61704700000010024029B1064A82
:1004C00092690243044B9A6104E0034A92698243B1
:1004D000014B9A61704700000010024030B50021C6
:1004E0000022002400232D4D6D6805F00C0121B180
:1004F000042905D0082923D105E0294D056022E013
:10050000274D05601FE0254D6D6805F47012234DE1
:100510006D6805F48034022505EB92421CB9214D2B
:10052000554305600BE01D4D6D6805F400351DB1A8
:100530001C4D5543056002E0194D5543056002E02E
:10054000174D056000BF00BF144D6D6805F0F00148
:100550000909154D6B5C0568DD4045600F4D6D6800
:1005600005F4E061090A104D6B5C4568DD4085606B
:100570000A4D6D6805F46051C90A0B4D6B5C456806
:10058000DD40C560054D6D6805F44041890B074DA0
:100590006B5CC568B5FBF3F5056130BD001002402A
:1005A00000127A0000093D00140000202400002001
:1005B00070B50024002517E06006040E01222021FA
:1005C0000E48FFF701FF022000F01AF840210B4807
:1005D000FFF7EFFE0443002220210848FFF7F4FE56
:1005E0006006040E681CC5B2082DE5DB012220213F
:1005F0000248FFF7E9FE204670BD000000080140F8
:1006000000E0401E0028FCD1704710B5044620468B
:1006100000F0B0FCFFF7CCFF10BD704710B500F044
:1006200001F810BD0CB5002001900090334800681F
:1006300040F480303149086000BF3048006800F461
:10064000003000900198401C0190009818B9019862
:10065000B0F5A06FF1D12948006800F4003010B166
:100660000120009001E0002000900098012843D173
:100670002348006840F010002149086008460068DF
:1006800020F0030008600846006840F0020008609F
:100690001A4840681949486008464068486008465A
:1006A000406840F4806048600846406820F47C1050
:1006B00048600846406840F4E81048600846006812
:1006C00040F08070086000BF0C48006800F00070C7
:1006D0000028F9D00948406820F003000749486025
:1006E0000846406840F00200486000BF0348406888
:1006F00000F00C000828F9D10CBD000000100240E9
:100700000020024008B501210420FFF7D7FE012197
:100710000420FFF7D3FE01210420FFF7CFFE0320C2
:100720008DF802002020ADF8000010208DF80300A5
:1007300069460C48FFF7AEFD4020ADF800000420EC
:100740008DF8030069460748FFF7A4FD8020ADF847
:10075000000010208DF8030069460248FFF79AFD5B
:1007600008BD00000008014010B500F083F910BD7D
:1007700030B51A4800681A4AB0FBF2F1B1F1807F37
:1007800001D301201DE021F07F40401E4FF0E02208
:10079000506150170F22002807DA13071D0E114B66
:1007A00000F00F04241F1D5503E013071C0E0E4B11
:1007B0001C5400BF00204FF0E02290610720106120
:1007C000002008B100BFFEE74FF0E020006920F0F4
:1007D00001004FF0E021086130BD00000000002062
:1007E00040420F0018ED00E000E400E010B51348AF
:1007F000006840F00100114908600846406810494F
:1008000008400E494860084600680E4908400B49F8
:1008100008600846006820F48020086008464068A8
:1008200020F4FE0048604FF41F008860FFF7F6FEDA
:100830004FF000600449086010BD00000010024045
:100840000000FFF8FFFFF6FE08ED00E010B5012103
:10085000880700F063F8002846D00121880700F0DF
:100860004EF822480088401C20490880084600882D
:10087000B0F57A7F0CD10020088008464088401CE3
:100880004880084640883C282EDD002048802BE028
:1008900016480088322190FBF1F201FB120018BBD0
:1008A000134890F8000168B1114890F80001401E0B
:1008B0000F4981F80001084690F8000110B90120A5
:1008C00081F801010B4890F8000168B1094890F8DF
:1008D0000001401E074981F80001084690F8000118
:1008E00010B9012081F8010110BD00002C0000208A
:1008F000980000209A010020CA4302827047CA4330
:100900000282704721B1028842F00102028004E0B5
:1009100002884FF6FE731A400280704730B50246D7
:10092000002000230024158A05EA0103958905EAC1
:10093000010413B10CB1012000E0002030BD1AB158
:1009400083890B43838102E083898B4383817047D2
:10095000002202881D4B98420ED01D4B98420BD0AE
:10096000B0F1804F08D01B4B984205D01A4B9842EB
:1009700002D01A4B984204D14FF68F731A404B881D
:100980001A43174B984207D0164B984204D04FF6A3
:10099000FF431A40CB881A4302808B8883850B88DB
:1009A00003850A4B98420BD0094B984208D00E4B56
:1009B000984205D00D4B984202D00D4B984201D180
:1009C0000B7A03860123838270470000002C0140CC
:1009D000003401400004004000080040000C0040CA
:1009E000001000400014004000400140004401405D
:1009F000004801401FB500241C4800681C49B0FB9A
:100A0000F1F0401E84B201210846FFF747FD1C208B
:100A10008DF80C0003208DF80D0001208DF80E00DC
:100A20008DF80F0003A8FFF7F5FC40F2E730ADF8B2
:100A30000400ADF800400020ADF80600ADF802005B
:100A40008DF8080069464FF08040FFF781FF0121D3
:100A50008807FFF751FF012211469007FFF76FFF4C
:100A600001218807FFF74EFF1FBD00000000002096
:100A700040420F000448006820B103480068401E4F
:100A800001490860704700002800002000B587B0C9
:100A900001210420FFF712FD01218803FFF70EFD5D
:100AA0004FF40070ADF8180018208DF81B000320DB
:100AB0008DF81A0006A91D48FFF7ECFB4FF4806083
:100AC000ADF8180004208DF81B0006A91748FFF7A1
:100AD000E1FB25208DF8140001208DF815008DF81C
:100AE00016008DF8170005A8FFF794FC4FF4E130CD
:100AF00001900020ADF80800ADF80A00ADF80C0038
:100B0000ADF810000C20ADF80E0001A9084800F067
:100B1000CDF8012240F22551054800F0A2F801214C
:100B2000034800F05BF807B000BD0000000801407A
:100B30000038014010B540F22551114800F067F827
:100B4000E0B10F4800F01EF9C1B20E4890F8FF4026
:100B5000601C0C4A82F8FF001046015590F8FF0017
:100B6000FF2807DB0020114681F8010181F8FF0012
:100B700081F800010220034981F8000110BD000046
:100B8000003801409800002010B540F2255111486E
:100B900000F03DF8E0B10F4800F0F4F8C1B20E48A3
:100BA00090F8FF40601C0C4A82F8FF001046015587
:100BB00090F8FF00FF2807DB0020114681F80101B3
:100BC00081F8FF0081F800010220034981F800014B
:100BD00010BD0000004400409A01002021B182892C
:100BE00042F40052828104E082894DF6FF731A407C
:100BF0008281704702460020B1F5007F00D100BF1E
:100C000013880B400BB1012000E00020704770B545
:100C10000246002400230025002040F66A16B14257
:100C200000D100BFC1F3421501F01F03012606FAEF
:100C300003F3012D02D19689334006E0022D02D143
:100C4000168A334001E0968A33400C12012606FAD8
:100C500004F41688344013B10CB1012000E00020E8
:100C600070BDF0B50346002400260025002040F6A4
:100C70006A17B94200D100BF1846C1F3421401F00F
:100C80001F06012707FA06F5012C01D10C3004E0FC
:100C9000022C01D1103000E014301AB107682F4344
:100CA000076002E00768AF430760F0BD2DE9F04739
:100CB00086B005460E460024A24600BFA146002786
:100CC000B08900B100BF2F462C8A4CF6FF7004405B
:100CD000F08804432C82AC894EF6F3100440B088AF
:100CE00031890843718908430443AC81AC8A4FF6CB
:100CF000FF400440B0890443AC8201A8FFF7EEFB3B
:100D00001F48874202D1DDF810A001E0DDF80CA0F9
:100D1000A88900F4004040B10AEBCA0000EB0A10B9
:100D200031684900B0FBF1F807E00AEBCA0000EBBC
:100D30000A1031688900B0FBF1F86420B8FBF0F0CC
:100D400004012009642101FB1089A88900F40040F6
:100D500040B1322000EBC900B0FBF1F000F0070019
:100D6000044308E0322000EB09106421B0FBF1F0ED
:100D700000F00F0004432C8106B0BDE8F0870000AE
:100D80000038014001468888C0F30800704770B5FC
:100D900004460D462946204600F008F800BF802191
:100DA0002046FFF727FF0028F9D070BDC1F30802E5
:100DB0008280704770B506460C46154604E02178DF
:100DC0003046FFF7E4FF641C281EA5F101018DB237
:100DD000F5D170BD00BFFEE708B501211020FFF777
:100DE0006DFB0120ADF8000003208DF802001020FB
:100DF0008DF8030069460A48FFF74CFAFFF782FCBA
:100E0000012211460648FFF7DFFA0122202105489A
:100E1000FFF7DAFA012280210248FFF7D5FA08BD70
:100E2000001001400008014038B50024FFF7D4FF4E
:100E300000F074F8044600BF00F050F80546234661
:100E400040F21D220CA10090114800F0C1F800BF33
:100E50001048844207D000BF40F2222206A10E486B
:100E600000F0B6F807E000BF40F2272202A10BA075
:100E700000F0AEF800BF38BD2E2E5C2E2E5C57322F
:100E8000355178785C7732357178782E63000000C0
:100E90004C1300081740EF00A01300083C3C2D46FF
:100EA0004C4153482D44454255472D3E3E203C2061
:100EB0002573203E5B25645D0A0A3E3E3E3E3E2091
:100EC00053504920726561642D777269746520738F
:100ED0007563636565640A0A0000000010B50024AC
:100EE000002201210C48FFF76FFAAB20FFF78DFBC2
:100EF000FF20FFF78AFBFF20FFF787FBFF20FFF7AC
:100F000084FBFF20FFF781FB0446012211460248C3
:100F1000FFF75AFA204610BD001001401FB500200F
:100F20000090019002900390002201211048FFF7E9
:100F30004BFA9F20FFF769FBFF20FFF766FB01904C
:100F4000FF20FFF762FB0290FF20FFF75EFB03909C
:100F500001980004029940EA012003990843009097
:100F6000012211460248FFF72FFA009804B010BD85
:100F70000010014070B5044600251EE0012220212A
:100F80001248FFF721FA0220FFF73AFB04F0800035
:100F900028B1012280210D48FFF716FA04E0002253
:100FA00080210A48FFF710FA002220210748FFF7A6
:100FB0000BFA6006040E681CC5B2082DDEDB0122A8
:100FC00020210248FFF700FA70BD00000008014030
:100FD0000FB4054B10B503A9044A029800F018F8A5
:100FE00010BC5DF814FB0000D11200083000002096
:100FF00002E008C8121F08C1002AFAD170477047E2
:10100000002001E001C1121F002AFBD1704700003F
:101010002DE9FF4F8DB09B460F460446002606E0A3
:1010200025280BD05A460F999047641C761C2078CF
:101030000028F5D111B03046BDE8F08F0025A84654
:101040000122984900E0054314F8013F203B02FAD1
:1010500003F00842F7D120782E2817D114F8010F99
:1010600045F004052A280ED06FF02F022078A0F159
:10107000300109290AD808EB880102EB410100EB95
:101080000108641CF2E757F8048B641C20786C2874
:101090000DD004DC4C2812D06A2811D104E0742849
:1010A0000DD07A280CD10AE045F4001507E06178EC
:1010B00045F48015814202D1641C05F58015641C3D
:1010C0002278692A45D008DC002AB3D0582A69D092
:1010D000632A10D0642A08D13BE0702A67D0732AB3
:1010E00013D0752A5CD0782A5CD010465A460F99E6
:1010F0009047761CD3E017F8040B8DF80000002011
:101100008DF80100E946012003E057F8049B4FF0F9
:10111000FF3069074FF0000501D40AE06D1C45451A
:101120000DDA8542FADB19F805100029F6D106E040
:101130006D1C8542FCDB19F805100029F8D12E44FE
:1011400004E019F8010B5A460F9990476D1EF8D22A
:10115000A5E00A200021CDE90801C5F302500228CC
:101160000DD001CFC117031E71F100030DDA4FF04E
:10117000000CD0EB0C006CEB01012D2308E0FF1DEF
:1011800027F00707F7E80201EDE72B0504D52B232D
:101190008DF8283001233BE0EB0739D02023F7E717
:1011A0000A2000E010200021CDE9080107E010200E
:1011B000002145F00405CDE908014FF00808C5F30A
:1011C000025002280FD001CF00214FF0000A2B0758
:1011D0001FD5702A0DD0DDE908C38CF0100C5CEA35
:1011E000030C0CD015E0FF1D27F00707F7E80201FC
:1011F000EBE740228DF828204FF0010A0BE050EA7F
:10120000010306D030238DF828308DF829200223E1
:101210009A46582A04D024A20DF120090B9209E025
:1012200026A2F9E7DDE90823FEF79EFF0B9B9B5CF6
:1012300009F8013D50EA0102F4D1ADEB090020307C
:101240000890680701D44FF001080899884502DD2D
:10125000A8EB010000E000208046002506E00AA877
:101260005A46405D0F9990476D1C761C5545F6DB3C
:1012700004E030205A460F999047761CB8F10001DF
:10128000A8F10108F5DC05E019F8010B5A460F99A1
:101290009047761C0899481E08900029F4DC641CCD
:1012A000C5E60000092801003031323334353637C5
:1012B00038396162636465660000000030313233A2
:1012C0003435363738394142434445460000000042
:1012D00070B504460D46E1B20548FFF767FD00BF53
:1012E00080210348FFF786FC0028F9D0204670BD16
:1012F0000038014086B0FFF779FA4FF4A060FFF79D
:10130000C1F8FFF735FAFFF775FBFFF7BFFBFFF7F3
:1013100063F8FFF789FD01A8FFF7E0F811E009483D
:1013200090F8010168B10020064981F801010846E2
:1013300090F8FF200448FFF73DFD0020014981F8A7
:10134000FF00ECE798000020003801403C3C2D46AF
:101350004C4153482D44454255472D3E3E203C20AC
:101360002573203E5B25645D0A0D0A466C61736837
:10137000494420697320307825582C4D616E75667C
:10138000616374757265722044657669636520498E
:101390004420697320307825580D0A0D0A0A000090
:1013A0003C3C2D464C4153482D44454255472D3E2B
:1013B0003E203C202573203E5B25645D0A0A3E3EAC
:1013C0003E3E3E2053504920726561642D7772691C
:1013D0007465204572726F722C20706C6561736544
:1013E00020636865636B2074686520636F6E6E654B
:1013F0006374696F6E206265747765656E204D4316
:101400005520616E642053504920466C6173680A10
:101410000A0000003414000800000020340000001E
:10142000F00F000868140008340000206C0600006B
:101430000010000800A24A040000000000000000A4
:10144000010203040607080900000000010203046A
:101450000102030406070809020406080000000050
:08146000000000000000000084
:0400000508000131BD
:00000001FF
